ARM GAS  C:\Users\dmarsch\AppData\Local\Temp\ccrhY87a.s 			page 1


   1              		.syntax unified
   2              		.cpu cortex-m3
   3              		.fpu softvfp
   4              		.eabi_attribute 20, 1
   5              		.eabi_attribute 21, 1
   6              		.eabi_attribute 23, 3
   7              		.eabi_attribute 24, 1
   8              		.eabi_attribute 25, 1
   9              		.eabi_attribute 26, 1
  10              		.eabi_attribute 30, 1
  11              		.eabi_attribute 34, 1
  12              		.eabi_attribute 18, 4
  13              		.thumb
  14              		.syntax unified
  15              		.file	"I2C_PM.c"
  16              		.text
  17              	.Ltext0:
  18              		.cfi_sections	.debug_frame
  19              		.section	.text.I2C_SaveConfig,"ax",%progbits
  20              		.align	2
  21              		.global	I2C_SaveConfig
  22              		.thumb
  23              		.thumb_func
  24              		.type	I2C_SaveConfig, %function
  25              	I2C_SaveConfig:
  26              	.LFB0:
  27              		.file 1 "Generated_Source\\PSoC5\\I2C_PM.c"
   1:Generated_Source\PSoC5/I2C_PM.c **** /*******************************************************************************
   2:Generated_Source\PSoC5/I2C_PM.c **** * File Name: I2C_PM.c
   3:Generated_Source\PSoC5/I2C_PM.c **** * Version 3.50
   4:Generated_Source\PSoC5/I2C_PM.c **** *
   5:Generated_Source\PSoC5/I2C_PM.c **** * Description:
   6:Generated_Source\PSoC5/I2C_PM.c **** *  This file provides low power mode APIs for the I2C component.
   7:Generated_Source\PSoC5/I2C_PM.c **** *
   8:Generated_Source\PSoC5/I2C_PM.c **** ********************************************************************************
   9:Generated_Source\PSoC5/I2C_PM.c **** * Copyright 2008-2015, Cypress Semiconductor Corporation. All rights reserved.
  10:Generated_Source\PSoC5/I2C_PM.c **** * You may use this file only in accordance with the license, terms, conditions,
  11:Generated_Source\PSoC5/I2C_PM.c **** * disclaimers, and limitations in the end user license agreement accompanying
  12:Generated_Source\PSoC5/I2C_PM.c **** * the software package with which this file was provided.
  13:Generated_Source\PSoC5/I2C_PM.c **** *******************************************************************************/
  14:Generated_Source\PSoC5/I2C_PM.c **** 
  15:Generated_Source\PSoC5/I2C_PM.c **** #include "I2C_PVT.h"
  16:Generated_Source\PSoC5/I2C_PM.c **** 
  17:Generated_Source\PSoC5/I2C_PM.c **** I2C_BACKUP_STRUCT I2C_backup =
  18:Generated_Source\PSoC5/I2C_PM.c **** {
  19:Generated_Source\PSoC5/I2C_PM.c ****     I2C_DISABLE,
  20:Generated_Source\PSoC5/I2C_PM.c **** 
  21:Generated_Source\PSoC5/I2C_PM.c **** #if (I2C_FF_IMPLEMENTED)
  22:Generated_Source\PSoC5/I2C_PM.c ****     I2C_DEFAULT_XCFG,
  23:Generated_Source\PSoC5/I2C_PM.c ****     I2C_DEFAULT_CFG,
  24:Generated_Source\PSoC5/I2C_PM.c ****     I2C_DEFAULT_ADDR,
  25:Generated_Source\PSoC5/I2C_PM.c ****     LO8(I2C_DEFAULT_DIVIDE_FACTOR),
  26:Generated_Source\PSoC5/I2C_PM.c ****     HI8(I2C_DEFAULT_DIVIDE_FACTOR),
  27:Generated_Source\PSoC5/I2C_PM.c **** #else  /* (I2C_UDB_IMPLEMENTED) */
  28:Generated_Source\PSoC5/I2C_PM.c ****     I2C_DEFAULT_CFG,
  29:Generated_Source\PSoC5/I2C_PM.c **** #endif /* (I2C_FF_IMPLEMENTED) */
  30:Generated_Source\PSoC5/I2C_PM.c **** 
ARM GAS  C:\Users\dmarsch\AppData\Local\Temp\ccrhY87a.s 			page 2


  31:Generated_Source\PSoC5/I2C_PM.c **** #if (I2C_TIMEOUT_ENABLED)
  32:Generated_Source\PSoC5/I2C_PM.c ****     I2C_DEFAULT_TMOUT_PERIOD,
  33:Generated_Source\PSoC5/I2C_PM.c ****     I2C_DEFAULT_TMOUT_INTR_MASK,
  34:Generated_Source\PSoC5/I2C_PM.c **** #endif /* (I2C_TIMEOUT_ENABLED) */
  35:Generated_Source\PSoC5/I2C_PM.c **** };
  36:Generated_Source\PSoC5/I2C_PM.c **** 
  37:Generated_Source\PSoC5/I2C_PM.c **** #if ((I2C_FF_IMPLEMENTED) && (I2C_WAKEUP_ENABLED))
  38:Generated_Source\PSoC5/I2C_PM.c ****     volatile uint8 I2C_wakeupSource;
  39:Generated_Source\PSoC5/I2C_PM.c **** #endif /* ((I2C_FF_IMPLEMENTED) && (I2C_WAKEUP_ENABLED)) */
  40:Generated_Source\PSoC5/I2C_PM.c **** 
  41:Generated_Source\PSoC5/I2C_PM.c **** 
  42:Generated_Source\PSoC5/I2C_PM.c **** /*******************************************************************************
  43:Generated_Source\PSoC5/I2C_PM.c **** * Function Name: I2C_SaveConfig
  44:Generated_Source\PSoC5/I2C_PM.c **** ********************************************************************************
  45:Generated_Source\PSoC5/I2C_PM.c **** *
  46:Generated_Source\PSoC5/I2C_PM.c **** * Summary:
  47:Generated_Source\PSoC5/I2C_PM.c **** *  The Enable wakeup from Sleep Mode selection influences this function
  48:Generated_Source\PSoC5/I2C_PM.c **** *  implementation:
  49:Generated_Source\PSoC5/I2C_PM.c **** *   Unchecked: Stores the component non-retention configuration registers.
  50:Generated_Source\PSoC5/I2C_PM.c **** *   Checked:   Disables the master, if it was enabled before, and enables
  51:Generated_Source\PSoC5/I2C_PM.c **** *              backup regulator of the I2C hardware. If a transaction intended
  52:Generated_Source\PSoC5/I2C_PM.c **** *              for component executes during this function call, it waits until
  53:Generated_Source\PSoC5/I2C_PM.c **** *              the current transaction is completed and I2C hardware is ready
  54:Generated_Source\PSoC5/I2C_PM.c **** *              to enter sleep mode. All subsequent I2C traffic is NAKed until
  55:Generated_Source\PSoC5/I2C_PM.c **** *              the device is put into sleep mode.
  56:Generated_Source\PSoC5/I2C_PM.c **** *
  57:Generated_Source\PSoC5/I2C_PM.c **** * Parameters:
  58:Generated_Source\PSoC5/I2C_PM.c **** *  None.
  59:Generated_Source\PSoC5/I2C_PM.c **** *
  60:Generated_Source\PSoC5/I2C_PM.c **** * Return:
  61:Generated_Source\PSoC5/I2C_PM.c **** *  None.
  62:Generated_Source\PSoC5/I2C_PM.c **** *
  63:Generated_Source\PSoC5/I2C_PM.c **** * Global Variables:
  64:Generated_Source\PSoC5/I2C_PM.c **** *  I2C_backup - The global variable used to save the component
  65:Generated_Source\PSoC5/I2C_PM.c **** *                            configuration and non-retention registers before
  66:Generated_Source\PSoC5/I2C_PM.c **** *                            entering the sleep mode.
  67:Generated_Source\PSoC5/I2C_PM.c **** *
  68:Generated_Source\PSoC5/I2C_PM.c **** * Reentrant:
  69:Generated_Source\PSoC5/I2C_PM.c **** *  No.
  70:Generated_Source\PSoC5/I2C_PM.c **** *
  71:Generated_Source\PSoC5/I2C_PM.c **** *******************************************************************************/
  72:Generated_Source\PSoC5/I2C_PM.c **** void I2C_SaveConfig(void) 
  73:Generated_Source\PSoC5/I2C_PM.c **** {
  28              		.loc 1 73 0
  29              		.cfi_startproc
  30              		@ args = 0, pretend = 0, frame = 0
  31              		@ frame_needed = 0, uses_anonymous_args = 0
  32              		@ link register save eliminated.
  74:Generated_Source\PSoC5/I2C_PM.c **** #if (I2C_FF_IMPLEMENTED)
  75:Generated_Source\PSoC5/I2C_PM.c ****     #if (I2C_WAKEUP_ENABLED)
  76:Generated_Source\PSoC5/I2C_PM.c ****         uint8 intState;
  77:Generated_Source\PSoC5/I2C_PM.c ****     #endif /* (I2C_WAKEUP_ENABLED) */
  78:Generated_Source\PSoC5/I2C_PM.c **** 
  79:Generated_Source\PSoC5/I2C_PM.c ****     /* Store registers before enter low power mode */
  80:Generated_Source\PSoC5/I2C_PM.c ****     I2C_backup.cfg     = I2C_CFG_REG;
  33              		.loc 1 80 0
  34 0000 084B     		ldr	r3, .L2
ARM GAS  C:\Users\dmarsch\AppData\Local\Temp\ccrhY87a.s 			page 3


  35 0002 1A78     		ldrb	r2, [r3]	@ zero_extendqisi2
  36 0004 084B     		ldr	r3, .L2+4
  37 0006 9A70     		strb	r2, [r3, #2]
  81:Generated_Source\PSoC5/I2C_PM.c ****     I2C_backup.xcfg    = I2C_XCFG_REG;
  38              		.loc 1 81 0
  39 0008 084A     		ldr	r2, .L2+8
  40 000a 1278     		ldrb	r2, [r2]	@ zero_extendqisi2
  41 000c 5A70     		strb	r2, [r3, #1]
  82:Generated_Source\PSoC5/I2C_PM.c ****     I2C_backup.addr    = I2C_ADDR_REG;
  42              		.loc 1 82 0
  43 000e 084A     		ldr	r2, .L2+12
  44 0010 1278     		ldrb	r2, [r2]	@ zero_extendqisi2
  45 0012 DA70     		strb	r2, [r3, #3]
  83:Generated_Source\PSoC5/I2C_PM.c ****     I2C_backup.clkDiv1 = I2C_CLKDIV1_REG;
  46              		.loc 1 83 0
  47 0014 074A     		ldr	r2, .L2+16
  48 0016 1278     		ldrb	r2, [r2]	@ zero_extendqisi2
  49 0018 1A71     		strb	r2, [r3, #4]
  84:Generated_Source\PSoC5/I2C_PM.c ****     I2C_backup.clkDiv2 = I2C_CLKDIV2_REG;
  50              		.loc 1 84 0
  51 001a 074A     		ldr	r2, .L2+20
  52 001c 1278     		ldrb	r2, [r2]	@ zero_extendqisi2
  53 001e 5A71     		strb	r2, [r3, #5]
  54 0020 7047     		bx	lr
  55              	.L3:
  56 0022 00BF     		.align	2
  57              	.L2:
  58 0024 D6490040 		.word	1073760726
  59 0028 00000000 		.word	.LANCHOR0
  60 002c C8490040 		.word	1073760712
  61 0030 CA490040 		.word	1073760714
  62 0034 DB490040 		.word	1073760731
  63 0038 DC490040 		.word	1073760732
  64              		.cfi_endproc
  65              	.LFE0:
  66              		.size	I2C_SaveConfig, .-I2C_SaveConfig
  67              		.section	.text.I2C_Sleep,"ax",%progbits
  68              		.align	2
  69              		.global	I2C_Sleep
  70              		.thumb
  71              		.thumb_func
  72              		.type	I2C_Sleep, %function
  73              	I2C_Sleep:
  74              	.LFB1:
  85:Generated_Source\PSoC5/I2C_PM.c **** 
  86:Generated_Source\PSoC5/I2C_PM.c **** #if (I2C_WAKEUP_ENABLED)
  87:Generated_Source\PSoC5/I2C_PM.c ****     /* Disable master */
  88:Generated_Source\PSoC5/I2C_PM.c ****     I2C_CFG_REG &= (uint8) ~I2C_ENABLE_MASTER;
  89:Generated_Source\PSoC5/I2C_PM.c **** 
  90:Generated_Source\PSoC5/I2C_PM.c ****     /* Enable backup regulator to keep block powered in low power mode */
  91:Generated_Source\PSoC5/I2C_PM.c ****     intState = CyEnterCriticalSection();
  92:Generated_Source\PSoC5/I2C_PM.c ****     I2C_PWRSYS_CR1_REG |= I2C_PWRSYS_CR1_I2C_REG_BACKUP;
  93:Generated_Source\PSoC5/I2C_PM.c ****     CyExitCriticalSection(intState);
  94:Generated_Source\PSoC5/I2C_PM.c **** 
  95:Generated_Source\PSoC5/I2C_PM.c ****     /* 1) Set force NACK to ignore I2C transactions;
  96:Generated_Source\PSoC5/I2C_PM.c ****     *  2) Wait unti I2C is ready go to Sleep; !!
  97:Generated_Source\PSoC5/I2C_PM.c ****     *  3) These bits are cleared on wake up.
ARM GAS  C:\Users\dmarsch\AppData\Local\Temp\ccrhY87a.s 			page 4


  98:Generated_Source\PSoC5/I2C_PM.c ****     */
  99:Generated_Source\PSoC5/I2C_PM.c ****     /* Wait when block is ready for sleep */
 100:Generated_Source\PSoC5/I2C_PM.c ****     I2C_XCFG_REG |= I2C_XCFG_FORCE_NACK;
 101:Generated_Source\PSoC5/I2C_PM.c ****     while (0u == (I2C_XCFG_REG & I2C_XCFG_RDY_TO_SLEEP))
 102:Generated_Source\PSoC5/I2C_PM.c ****     {
 103:Generated_Source\PSoC5/I2C_PM.c ****     }
 104:Generated_Source\PSoC5/I2C_PM.c **** 
 105:Generated_Source\PSoC5/I2C_PM.c ****     /* Setup wakeup interrupt */
 106:Generated_Source\PSoC5/I2C_PM.c ****     I2C_DisableInt();
 107:Generated_Source\PSoC5/I2C_PM.c ****     (void) CyIntSetVector(I2C_ISR_NUMBER, &I2C_WAKEUP_ISR);
 108:Generated_Source\PSoC5/I2C_PM.c ****     I2C_wakeupSource = 0u;
 109:Generated_Source\PSoC5/I2C_PM.c ****     I2C_EnableInt();
 110:Generated_Source\PSoC5/I2C_PM.c **** #endif /* (I2C_WAKEUP_ENABLED) */
 111:Generated_Source\PSoC5/I2C_PM.c **** 
 112:Generated_Source\PSoC5/I2C_PM.c **** #else
 113:Generated_Source\PSoC5/I2C_PM.c ****     /* Store only address match bit */
 114:Generated_Source\PSoC5/I2C_PM.c ****     I2C_backup.control = (I2C_CFG_REG & I2C_CTRL_ANY_ADDRESS_MASK);
 115:Generated_Source\PSoC5/I2C_PM.c **** #endif /* (I2C_FF_IMPLEMENTED) */
 116:Generated_Source\PSoC5/I2C_PM.c **** 
 117:Generated_Source\PSoC5/I2C_PM.c **** #if (I2C_TIMEOUT_ENABLED)
 118:Generated_Source\PSoC5/I2C_PM.c ****     I2C_TimeoutSaveConfig();
 119:Generated_Source\PSoC5/I2C_PM.c **** #endif /* (I2C_TIMEOUT_ENABLED) */
 120:Generated_Source\PSoC5/I2C_PM.c **** }
 121:Generated_Source\PSoC5/I2C_PM.c **** 
 122:Generated_Source\PSoC5/I2C_PM.c **** 
 123:Generated_Source\PSoC5/I2C_PM.c **** /*******************************************************************************
 124:Generated_Source\PSoC5/I2C_PM.c **** * Function Name: I2C_Sleep
 125:Generated_Source\PSoC5/I2C_PM.c **** ********************************************************************************
 126:Generated_Source\PSoC5/I2C_PM.c **** *
 127:Generated_Source\PSoC5/I2C_PM.c **** * Summary:
 128:Generated_Source\PSoC5/I2C_PM.c **** *  This is the preferred method to prepare the component before device enters
 129:Generated_Source\PSoC5/I2C_PM.c **** *  sleep mode. The Enable wakeup from Sleep Mode selection influences this
 130:Generated_Source\PSoC5/I2C_PM.c **** *  function implementation:
 131:Generated_Source\PSoC5/I2C_PM.c **** *   Unchecked: Checks current I2C component state, saves it, and disables the
 132:Generated_Source\PSoC5/I2C_PM.c **** *              component by calling I2C_Stop() if it is currently enabled.
 133:Generated_Source\PSoC5/I2C_PM.c **** *              I2C_SaveConfig() is then called to save the component
 134:Generated_Source\PSoC5/I2C_PM.c **** *              non-retention configuration registers.
 135:Generated_Source\PSoC5/I2C_PM.c **** *   Checked:   If a transaction intended for component executes during this
 136:Generated_Source\PSoC5/I2C_PM.c **** *              function call, it waits until the current transaction is
 137:Generated_Source\PSoC5/I2C_PM.c **** *              completed. All subsequent I2C traffic intended for component
 138:Generated_Source\PSoC5/I2C_PM.c **** *              is NAKed until the device is put to sleep mode. The address
 139:Generated_Source\PSoC5/I2C_PM.c **** *              match event wakes up the device.
 140:Generated_Source\PSoC5/I2C_PM.c **** *
 141:Generated_Source\PSoC5/I2C_PM.c **** * Parameters:
 142:Generated_Source\PSoC5/I2C_PM.c **** *  None.
 143:Generated_Source\PSoC5/I2C_PM.c **** *
 144:Generated_Source\PSoC5/I2C_PM.c **** * Return:
 145:Generated_Source\PSoC5/I2C_PM.c **** *  None.
 146:Generated_Source\PSoC5/I2C_PM.c **** *
 147:Generated_Source\PSoC5/I2C_PM.c **** * Reentrant:
 148:Generated_Source\PSoC5/I2C_PM.c **** *  No.
 149:Generated_Source\PSoC5/I2C_PM.c **** *
 150:Generated_Source\PSoC5/I2C_PM.c **** *******************************************************************************/
 151:Generated_Source\PSoC5/I2C_PM.c **** void I2C_Sleep(void) 
 152:Generated_Source\PSoC5/I2C_PM.c **** {
  75              		.loc 1 152 0
  76              		.cfi_startproc
ARM GAS  C:\Users\dmarsch\AppData\Local\Temp\ccrhY87a.s 			page 5


  77              		@ args = 0, pretend = 0, frame = 0
  78              		@ frame_needed = 0, uses_anonymous_args = 0
  79 0000 08B5     		push	{r3, lr}
  80              		.cfi_def_cfa_offset 8
  81              		.cfi_offset 3, -8
  82              		.cfi_offset 14, -4
 153:Generated_Source\PSoC5/I2C_PM.c **** #if (I2C_WAKEUP_ENABLED)
 154:Generated_Source\PSoC5/I2C_PM.c ****     /* Do not enable block after exit low power mode if it is wakeup source */
 155:Generated_Source\PSoC5/I2C_PM.c ****     I2C_backup.enableState = I2C_DISABLE;
 156:Generated_Source\PSoC5/I2C_PM.c **** 
 157:Generated_Source\PSoC5/I2C_PM.c ****     #if (I2C_TIMEOUT_ENABLED)
 158:Generated_Source\PSoC5/I2C_PM.c ****         I2C_TimeoutStop();
 159:Generated_Source\PSoC5/I2C_PM.c ****     #endif /* (I2C_TIMEOUT_ENABLED) */
 160:Generated_Source\PSoC5/I2C_PM.c **** 
 161:Generated_Source\PSoC5/I2C_PM.c **** #else
 162:Generated_Source\PSoC5/I2C_PM.c ****     /* Store enable state */
 163:Generated_Source\PSoC5/I2C_PM.c ****     I2C_backup.enableState = (uint8) I2C_IS_ENABLED;
  83              		.loc 1 163 0
  84 0002 064B     		ldr	r3, .L7
  85 0004 1B78     		ldrb	r3, [r3]	@ zero_extendqisi2
  86 0006 C3F38003 		ubfx	r3, r3, #2, #1
  87 000a 054A     		ldr	r2, .L7+4
  88 000c 1370     		strb	r3, [r2]
 164:Generated_Source\PSoC5/I2C_PM.c **** 
 165:Generated_Source\PSoC5/I2C_PM.c ****     if (0u != I2C_backup.enableState)
  89              		.loc 1 165 0
  90 000e 0BB1     		cbz	r3, .L5
 166:Generated_Source\PSoC5/I2C_PM.c ****     {
 167:Generated_Source\PSoC5/I2C_PM.c ****         I2C_Stop();
  91              		.loc 1 167 0
  92 0010 FFF7FEFF 		bl	I2C_Stop
  93              	.LVL0:
  94              	.L5:
 168:Generated_Source\PSoC5/I2C_PM.c ****     }
 169:Generated_Source\PSoC5/I2C_PM.c **** #endif /* (I2C_WAKEUP_ENABLED) */
 170:Generated_Source\PSoC5/I2C_PM.c **** 
 171:Generated_Source\PSoC5/I2C_PM.c ****     I2C_SaveConfig();
  95              		.loc 1 171 0
  96 0014 FFF7FEFF 		bl	I2C_SaveConfig
  97              	.LVL1:
  98 0018 08BD     		pop	{r3, pc}
  99              	.L8:
 100 001a 00BF     		.align	2
 101              	.L7:
 102 001c A5430040 		.word	1073759141
 103 0020 00000000 		.word	.LANCHOR0
 104              		.cfi_endproc
 105              	.LFE1:
 106              		.size	I2C_Sleep, .-I2C_Sleep
 107              		.section	.text.I2C_RestoreConfig,"ax",%progbits
 108              		.align	2
 109              		.global	I2C_RestoreConfig
 110              		.thumb
 111              		.thumb_func
 112              		.type	I2C_RestoreConfig, %function
 113              	I2C_RestoreConfig:
 114              	.LFB2:
ARM GAS  C:\Users\dmarsch\AppData\Local\Temp\ccrhY87a.s 			page 6


 172:Generated_Source\PSoC5/I2C_PM.c **** }
 173:Generated_Source\PSoC5/I2C_PM.c **** 
 174:Generated_Source\PSoC5/I2C_PM.c **** 
 175:Generated_Source\PSoC5/I2C_PM.c **** /*******************************************************************************
 176:Generated_Source\PSoC5/I2C_PM.c **** * Function Name: I2C_RestoreConfig
 177:Generated_Source\PSoC5/I2C_PM.c **** ********************************************************************************
 178:Generated_Source\PSoC5/I2C_PM.c **** *
 179:Generated_Source\PSoC5/I2C_PM.c **** * Summary:
 180:Generated_Source\PSoC5/I2C_PM.c **** *  The Enable wakeup from Sleep Mode selection influences this function
 181:Generated_Source\PSoC5/I2C_PM.c **** *  implementation:
 182:Generated_Source\PSoC5/I2C_PM.c **** *   Unchecked: Restores the component non-retention configuration registers
 183:Generated_Source\PSoC5/I2C_PM.c **** *              to the state they were in before I2C_Sleep() or I2C_SaveConfig()
 184:Generated_Source\PSoC5/I2C_PM.c **** *              was called.
 185:Generated_Source\PSoC5/I2C_PM.c **** *   Checked:   Disables the backup regulator of the I2C hardware. Sets up the
 186:Generated_Source\PSoC5/I2C_PM.c **** *              regular component interrupt handler and generates the component
 187:Generated_Source\PSoC5/I2C_PM.c **** *              interrupt if it was wake up source to release the bus and
 188:Generated_Source\PSoC5/I2C_PM.c **** *              continue in-coming I2C transaction.
 189:Generated_Source\PSoC5/I2C_PM.c **** *
 190:Generated_Source\PSoC5/I2C_PM.c **** * Parameters:
 191:Generated_Source\PSoC5/I2C_PM.c **** *  None.
 192:Generated_Source\PSoC5/I2C_PM.c **** *
 193:Generated_Source\PSoC5/I2C_PM.c **** * Return:
 194:Generated_Source\PSoC5/I2C_PM.c **** *  None.
 195:Generated_Source\PSoC5/I2C_PM.c **** *
 196:Generated_Source\PSoC5/I2C_PM.c **** * Global Variables:
 197:Generated_Source\PSoC5/I2C_PM.c **** *  I2C_backup - The global variable used to save the component
 198:Generated_Source\PSoC5/I2C_PM.c **** *                            configuration and non-retention registers before
 199:Generated_Source\PSoC5/I2C_PM.c **** *                            exiting the sleep mode.
 200:Generated_Source\PSoC5/I2C_PM.c **** *
 201:Generated_Source\PSoC5/I2C_PM.c **** * Reentrant:
 202:Generated_Source\PSoC5/I2C_PM.c **** *  No.
 203:Generated_Source\PSoC5/I2C_PM.c **** *
 204:Generated_Source\PSoC5/I2C_PM.c **** * Side Effects:
 205:Generated_Source\PSoC5/I2C_PM.c **** *  Calling this function before I2C_SaveConfig() or
 206:Generated_Source\PSoC5/I2C_PM.c **** *  I2C_Sleep() will lead to unpredictable results.
 207:Generated_Source\PSoC5/I2C_PM.c **** *
 208:Generated_Source\PSoC5/I2C_PM.c **** *******************************************************************************/
 209:Generated_Source\PSoC5/I2C_PM.c **** void I2C_RestoreConfig(void) 
 210:Generated_Source\PSoC5/I2C_PM.c **** {
 115              		.loc 1 210 0
 116              		.cfi_startproc
 117              		@ args = 0, pretend = 0, frame = 0
 118              		@ frame_needed = 0, uses_anonymous_args = 0
 119 0000 08B5     		push	{r3, lr}
 120              		.cfi_def_cfa_offset 8
 121              		.cfi_offset 3, -8
 122              		.cfi_offset 14, -4
 211:Generated_Source\PSoC5/I2C_PM.c **** #if (I2C_FF_IMPLEMENTED)
 212:Generated_Source\PSoC5/I2C_PM.c ****     uint8 intState;
 213:Generated_Source\PSoC5/I2C_PM.c **** 
 214:Generated_Source\PSoC5/I2C_PM.c ****     if (I2C_CHECK_PWRSYS_I2C_BACKUP)
 123              		.loc 1 214 0
 124 0002 124B     		ldr	r3, .L13
 125 0004 1B78     		ldrb	r3, [r3]	@ zero_extendqisi2
 126 0006 13F0040F 		tst	r3, #4
 127 000a 0DD0     		beq	.L10
 215:Generated_Source\PSoC5/I2C_PM.c ****     /* Low power mode was Sleep - backup regulator is enabled */
ARM GAS  C:\Users\dmarsch\AppData\Local\Temp\ccrhY87a.s 			page 7


 216:Generated_Source\PSoC5/I2C_PM.c ****     {
 217:Generated_Source\PSoC5/I2C_PM.c ****         /* Enable backup regulator in active mode */
 218:Generated_Source\PSoC5/I2C_PM.c ****         intState = CyEnterCriticalSection();
 128              		.loc 1 218 0
 129 000c FFF7FEFF 		bl	CyEnterCriticalSection
 130              	.LVL2:
 219:Generated_Source\PSoC5/I2C_PM.c ****         I2C_PWRSYS_CR1_REG &= (uint8) ~I2C_PWRSYS_CR1_I2C_REG_BACKUP;
 131              		.loc 1 219 0
 132 0010 0E4A     		ldr	r2, .L13
 133 0012 1378     		ldrb	r3, [r2]	@ zero_extendqisi2
 134 0014 03F0FB03 		and	r3, r3, #251
 135 0018 1370     		strb	r3, [r2]
 220:Generated_Source\PSoC5/I2C_PM.c ****         CyExitCriticalSection(intState);
 136              		.loc 1 220 0
 137 001a FFF7FEFF 		bl	CyExitCriticalSection
 138              	.LVL3:
 221:Generated_Source\PSoC5/I2C_PM.c **** 
 222:Generated_Source\PSoC5/I2C_PM.c ****         /* Restore master */
 223:Generated_Source\PSoC5/I2C_PM.c ****         I2C_CFG_REG = I2C_backup.cfg;
 139              		.loc 1 223 0
 140 001e 0C4B     		ldr	r3, .L13+4
 141 0020 9A78     		ldrb	r2, [r3, #2]	@ zero_extendqisi2
 142 0022 0C4B     		ldr	r3, .L13+8
 143 0024 1A70     		strb	r2, [r3]
 144 0026 08BD     		pop	{r3, pc}
 145              	.L10:
 224:Generated_Source\PSoC5/I2C_PM.c ****     }
 225:Generated_Source\PSoC5/I2C_PM.c ****     else
 226:Generated_Source\PSoC5/I2C_PM.c ****     /* Low power mode was Hibernate - backup regulator is disabled. All registers are cleared */
 227:Generated_Source\PSoC5/I2C_PM.c ****     {
 228:Generated_Source\PSoC5/I2C_PM.c ****     #if (I2C_WAKEUP_ENABLED)
 229:Generated_Source\PSoC5/I2C_PM.c ****         /* Disable power to block before register restore */
 230:Generated_Source\PSoC5/I2C_PM.c ****         intState = CyEnterCriticalSection();
 231:Generated_Source\PSoC5/I2C_PM.c ****         I2C_ACT_PWRMGR_REG  &= (uint8) ~I2C_ACT_PWR_EN;
 232:Generated_Source\PSoC5/I2C_PM.c ****         I2C_STBY_PWRMGR_REG &= (uint8) ~I2C_STBY_PWR_EN;
 233:Generated_Source\PSoC5/I2C_PM.c ****         CyExitCriticalSection(intState);
 234:Generated_Source\PSoC5/I2C_PM.c **** 
 235:Generated_Source\PSoC5/I2C_PM.c ****         /* Enable component in I2C_Wakeup() after register restore */
 236:Generated_Source\PSoC5/I2C_PM.c ****         I2C_backup.enableState = I2C_ENABLE;
 237:Generated_Source\PSoC5/I2C_PM.c ****     #endif /* (I2C_WAKEUP_ENABLED) */
 238:Generated_Source\PSoC5/I2C_PM.c **** 
 239:Generated_Source\PSoC5/I2C_PM.c ****         /* Restore component registers after Hibernate */
 240:Generated_Source\PSoC5/I2C_PM.c ****         I2C_XCFG_REG    = I2C_backup.xcfg;
 146              		.loc 1 240 0
 147 0028 094B     		ldr	r3, .L13+4
 148 002a 5978     		ldrb	r1, [r3, #1]	@ zero_extendqisi2
 149 002c 0A4A     		ldr	r2, .L13+12
 150 002e 1170     		strb	r1, [r2]
 241:Generated_Source\PSoC5/I2C_PM.c ****         I2C_CFG_REG     = I2C_backup.cfg;
 151              		.loc 1 241 0
 152 0030 9978     		ldrb	r1, [r3, #2]	@ zero_extendqisi2
 153 0032 0E32     		adds	r2, r2, #14
 154 0034 1170     		strb	r1, [r2]
 242:Generated_Source\PSoC5/I2C_PM.c ****         I2C_ADDR_REG    = I2C_backup.addr;
 155              		.loc 1 242 0
 156 0036 D978     		ldrb	r1, [r3, #3]	@ zero_extendqisi2
 157 0038 0C3A     		subs	r2, r2, #12
ARM GAS  C:\Users\dmarsch\AppData\Local\Temp\ccrhY87a.s 			page 8


 158 003a 1170     		strb	r1, [r2]
 243:Generated_Source\PSoC5/I2C_PM.c ****         I2C_CLKDIV1_REG = I2C_backup.clkDiv1;
 159              		.loc 1 243 0
 160 003c 1979     		ldrb	r1, [r3, #4]	@ zero_extendqisi2
 161 003e 1132     		adds	r2, r2, #17
 162 0040 1170     		strb	r1, [r2]
 244:Generated_Source\PSoC5/I2C_PM.c ****         I2C_CLKDIV2_REG = I2C_backup.clkDiv2;
 163              		.loc 1 244 0
 164 0042 5A79     		ldrb	r2, [r3, #5]	@ zero_extendqisi2
 165 0044 054B     		ldr	r3, .L13+16
 166 0046 1A70     		strb	r2, [r3]
 167 0048 08BD     		pop	{r3, pc}
 168              	.L14:
 169 004a 00BF     		.align	2
 170              	.L13:
 171 004c 31430040 		.word	1073759025
 172 0050 00000000 		.word	.LANCHOR0
 173 0054 D6490040 		.word	1073760726
 174 0058 C8490040 		.word	1073760712
 175 005c DC490040 		.word	1073760732
 176              		.cfi_endproc
 177              	.LFE2:
 178              		.size	I2C_RestoreConfig, .-I2C_RestoreConfig
 179              		.section	.text.I2C_Wakeup,"ax",%progbits
 180              		.align	2
 181              		.global	I2C_Wakeup
 182              		.thumb
 183              		.thumb_func
 184              		.type	I2C_Wakeup, %function
 185              	I2C_Wakeup:
 186              	.LFB3:
 245:Generated_Source\PSoC5/I2C_PM.c ****     }
 246:Generated_Source\PSoC5/I2C_PM.c **** 
 247:Generated_Source\PSoC5/I2C_PM.c **** #if (I2C_WAKEUP_ENABLED)
 248:Generated_Source\PSoC5/I2C_PM.c ****     I2C_DisableInt();
 249:Generated_Source\PSoC5/I2C_PM.c ****     (void) CyIntSetVector(I2C_ISR_NUMBER, &I2C_ISR);
 250:Generated_Source\PSoC5/I2C_PM.c ****     if (0u != I2C_wakeupSource)
 251:Generated_Source\PSoC5/I2C_PM.c ****     {
 252:Generated_Source\PSoC5/I2C_PM.c ****         /* Generate interrupt to process incoming transaction */
 253:Generated_Source\PSoC5/I2C_PM.c ****         I2C_SetPendingInt();
 254:Generated_Source\PSoC5/I2C_PM.c ****     }
 255:Generated_Source\PSoC5/I2C_PM.c ****     I2C_EnableInt();
 256:Generated_Source\PSoC5/I2C_PM.c **** #endif /* (I2C_WAKEUP_ENABLED) */
 257:Generated_Source\PSoC5/I2C_PM.c **** 
 258:Generated_Source\PSoC5/I2C_PM.c **** #else
 259:Generated_Source\PSoC5/I2C_PM.c ****     I2C_CFG_REG = I2C_backup.control;
 260:Generated_Source\PSoC5/I2C_PM.c **** #endif /* (I2C_FF_IMPLEMENTED) */
 261:Generated_Source\PSoC5/I2C_PM.c **** 
 262:Generated_Source\PSoC5/I2C_PM.c **** #if (I2C_TIMEOUT_ENABLED)
 263:Generated_Source\PSoC5/I2C_PM.c ****     I2C_TimeoutRestoreConfig();
 264:Generated_Source\PSoC5/I2C_PM.c **** #endif /* (I2C_TIMEOUT_ENABLED) */
 265:Generated_Source\PSoC5/I2C_PM.c **** }
 266:Generated_Source\PSoC5/I2C_PM.c **** 
 267:Generated_Source\PSoC5/I2C_PM.c **** 
 268:Generated_Source\PSoC5/I2C_PM.c **** /*******************************************************************************
 269:Generated_Source\PSoC5/I2C_PM.c **** * Function Name: I2C_Wakeup
 270:Generated_Source\PSoC5/I2C_PM.c **** ********************************************************************************
ARM GAS  C:\Users\dmarsch\AppData\Local\Temp\ccrhY87a.s 			page 9


 271:Generated_Source\PSoC5/I2C_PM.c **** *
 272:Generated_Source\PSoC5/I2C_PM.c **** * Summary:
 273:Generated_Source\PSoC5/I2C_PM.c **** *  This is the preferred method to prepare the component for active mode
 274:Generated_Source\PSoC5/I2C_PM.c **** *  operation (when device exits sleep mode). The Enable wakeup from Sleep Mode
 275:Generated_Source\PSoC5/I2C_PM.c **** *  selection influences this function implementation:
 276:Generated_Source\PSoC5/I2C_PM.c **** *   Unchecked: Restores the component non-retention configuration registers
 277:Generated_Source\PSoC5/I2C_PM.c **** *              by calling I2C_RestoreConfig(). If the component was enabled
 278:Generated_Source\PSoC5/I2C_PM.c **** *              before the I2C_Sleep() function was called, I2C_Wakeup()
 279:Generated_Source\PSoC5/I2C_PM.c **** *              re-enables it.
 280:Generated_Source\PSoC5/I2C_PM.c **** *   Checked:   Enables  master functionality if it was enabled before sleep,
 281:Generated_Source\PSoC5/I2C_PM.c **** *              and disables the backup regulator of the I2C hardware.
 282:Generated_Source\PSoC5/I2C_PM.c **** *              The incoming transaction continues as soon as the regular
 283:Generated_Source\PSoC5/I2C_PM.c **** *              I2C interrupt handler is set up (global interrupts has to be
 284:Generated_Source\PSoC5/I2C_PM.c **** *              enabled to service I2C component interrupt).
 285:Generated_Source\PSoC5/I2C_PM.c **** *
 286:Generated_Source\PSoC5/I2C_PM.c **** * Parameters:
 287:Generated_Source\PSoC5/I2C_PM.c **** *  None.
 288:Generated_Source\PSoC5/I2C_PM.c **** *
 289:Generated_Source\PSoC5/I2C_PM.c **** * Return:
 290:Generated_Source\PSoC5/I2C_PM.c **** *  None.
 291:Generated_Source\PSoC5/I2C_PM.c **** *
 292:Generated_Source\PSoC5/I2C_PM.c **** * Reentrant:
 293:Generated_Source\PSoC5/I2C_PM.c **** *  No.
 294:Generated_Source\PSoC5/I2C_PM.c **** *
 295:Generated_Source\PSoC5/I2C_PM.c **** * Side Effects:
 296:Generated_Source\PSoC5/I2C_PM.c **** *  Calling this function before I2C_SaveConfig() or
 297:Generated_Source\PSoC5/I2C_PM.c **** *  I2C_Sleep() will lead to unpredictable results.
 298:Generated_Source\PSoC5/I2C_PM.c **** *
 299:Generated_Source\PSoC5/I2C_PM.c **** *******************************************************************************/
 300:Generated_Source\PSoC5/I2C_PM.c **** void I2C_Wakeup(void) 
 301:Generated_Source\PSoC5/I2C_PM.c **** {
 187              		.loc 1 301 0
 188              		.cfi_startproc
 189              		@ args = 0, pretend = 0, frame = 0
 190              		@ frame_needed = 0, uses_anonymous_args = 0
 191 0000 08B5     		push	{r3, lr}
 192              		.cfi_def_cfa_offset 8
 193              		.cfi_offset 3, -8
 194              		.cfi_offset 14, -4
 302:Generated_Source\PSoC5/I2C_PM.c ****     I2C_RestoreConfig();
 195              		.loc 1 302 0
 196 0002 FFF7FEFF 		bl	I2C_RestoreConfig
 197              	.LVL4:
 303:Generated_Source\PSoC5/I2C_PM.c **** 
 304:Generated_Source\PSoC5/I2C_PM.c ****     /* Restore component enable state */
 305:Generated_Source\PSoC5/I2C_PM.c ****     if (0u != I2C_backup.enableState)
 198              		.loc 1 305 0
 199 0006 054B     		ldr	r3, .L18
 200 0008 1B78     		ldrb	r3, [r3]	@ zero_extendqisi2
 201 000a 2BB1     		cbz	r3, .L15
 306:Generated_Source\PSoC5/I2C_PM.c ****     {
 307:Generated_Source\PSoC5/I2C_PM.c ****         I2C_Enable();
 202              		.loc 1 307 0
 203 000c FFF7FEFF 		bl	I2C_Enable
 204              	.LVL5:
 308:Generated_Source\PSoC5/I2C_PM.c ****         I2C_EnableInt();
 205              		.loc 1 308 0
ARM GAS  C:\Users\dmarsch\AppData\Local\Temp\ccrhY87a.s 			page 10


 206 0010 4FF40042 		mov	r2, #32768
 207 0014 024B     		ldr	r3, .L18+4
 208 0016 1A60     		str	r2, [r3]
 209              	.L15:
 210 0018 08BD     		pop	{r3, pc}
 211              	.L19:
 212 001a 00BF     		.align	2
 213              	.L18:
 214 001c 00000000 		.word	.LANCHOR0
 215 0020 00E100E0 		.word	-536813312
 216              		.cfi_endproc
 217              	.LFE3:
 218              		.size	I2C_Wakeup, .-I2C_Wakeup
 219              		.global	I2C_backup
 220              		.data
 221              		.align	2
 222              		.set	.LANCHOR0,. + 0
 223              		.type	I2C_backup, %object
 224              		.size	I2C_backup, 6
 225              	I2C_backup:
 226 0000 00       		.byte	0
 227 0001 81       		.byte	-127
 228 0002 02       		.byte	2
 229 0003 08       		.byte	8
 230 0004 0F       		.byte	15
 231 0005 00       		.byte	0
 232              		.text
 233              	.Letext0:
 234              		.file 2 "Generated_Source\\PSoC5\\cytypes.h"
 235              		.file 3 "Generated_Source\\PSoC5\\I2C.h"
 236              		.file 4 "Generated_Source\\PSoC5\\CyLib.h"
