ARM GAS  C:\Users\dmarsch\AppData\Local\Temp\ccUnypUV.s 			page 1


   1              		.syntax unified
   2              		.cpu cortex-m3
   3              		.fpu softvfp
   4              		.eabi_attribute 20, 1
   5              		.eabi_attribute 21, 1
   6              		.eabi_attribute 23, 3
   7              		.eabi_attribute 24, 1
   8              		.eabi_attribute 25, 1
   9              		.eabi_attribute 26, 1
  10              		.eabi_attribute 30, 1
  11              		.eabi_attribute 34, 1
  12              		.eabi_attribute 18, 4
  13              		.thumb
  14              		.syntax unified
  15              		.file	"MODE_ISR.c"
  16              		.text
  17              	.Ltext0:
  18              		.cfi_sections	.debug_frame
  19              		.section	.text.MODE_ISR_Interrupt,"ax",%progbits
  20              		.align	2
  21              		.global	MODE_ISR_Interrupt
  22              		.thumb
  23              		.thumb_func
  24              		.type	MODE_ISR_Interrupt, %function
  25              	MODE_ISR_Interrupt:
  26              	.LFB3:
  27              		.file 1 "Generated_Source\\PSoC5\\MODE_ISR.c"
   1:Generated_Source\PSoC5/MODE_ISR.c **** /*******************************************************************************
   2:Generated_Source\PSoC5/MODE_ISR.c **** * File Name: MODE_ISR.c  
   3:Generated_Source\PSoC5/MODE_ISR.c **** * Version 1.70
   4:Generated_Source\PSoC5/MODE_ISR.c **** *
   5:Generated_Source\PSoC5/MODE_ISR.c **** *  Description:
   6:Generated_Source\PSoC5/MODE_ISR.c **** *   API for controlling the state of an interrupt.
   7:Generated_Source\PSoC5/MODE_ISR.c **** *
   8:Generated_Source\PSoC5/MODE_ISR.c **** *
   9:Generated_Source\PSoC5/MODE_ISR.c **** *  Note:
  10:Generated_Source\PSoC5/MODE_ISR.c **** *
  11:Generated_Source\PSoC5/MODE_ISR.c **** ********************************************************************************
  12:Generated_Source\PSoC5/MODE_ISR.c **** * Copyright 2008-2015, Cypress Semiconductor Corporation.  All rights reserved.
  13:Generated_Source\PSoC5/MODE_ISR.c **** * You may use this file only in accordance with the license, terms, conditions, 
  14:Generated_Source\PSoC5/MODE_ISR.c **** * disclaimers, and limitations in the end user license agreement accompanying 
  15:Generated_Source\PSoC5/MODE_ISR.c **** * the software package with which this file was provided.
  16:Generated_Source\PSoC5/MODE_ISR.c **** *******************************************************************************/
  17:Generated_Source\PSoC5/MODE_ISR.c **** 
  18:Generated_Source\PSoC5/MODE_ISR.c **** 
  19:Generated_Source\PSoC5/MODE_ISR.c **** #include <cydevice_trm.h>
  20:Generated_Source\PSoC5/MODE_ISR.c **** #include <CyLib.h>
  21:Generated_Source\PSoC5/MODE_ISR.c **** #include <MODE_ISR.h>
  22:Generated_Source\PSoC5/MODE_ISR.c **** #include "cyapicallbacks.h"
  23:Generated_Source\PSoC5/MODE_ISR.c **** 
  24:Generated_Source\PSoC5/MODE_ISR.c **** #if !defined(MODE_ISR__REMOVED) /* Check for removal by optimization */
  25:Generated_Source\PSoC5/MODE_ISR.c **** 
  26:Generated_Source\PSoC5/MODE_ISR.c **** /*******************************************************************************
  27:Generated_Source\PSoC5/MODE_ISR.c **** *  Place your includes, defines and code here 
  28:Generated_Source\PSoC5/MODE_ISR.c **** ********************************************************************************/
  29:Generated_Source\PSoC5/MODE_ISR.c **** /* `#START MODE_ISR_intc` */
  30:Generated_Source\PSoC5/MODE_ISR.c **** #include "MODE.h"
ARM GAS  C:\Users\dmarsch\AppData\Local\Temp\ccUnypUV.s 			page 2


  31:Generated_Source\PSoC5/MODE_ISR.c **** #include "Tout.h"
  32:Generated_Source\PSoC5/MODE_ISR.c **** #include "MOTOR.h"
  33:Generated_Source\PSoC5/MODE_ISR.c **** #include "MOTOR_ISR.h"
  34:Generated_Source\PSoC5/MODE_ISR.c **** #include "TOUT_ISR.h"
  35:Generated_Source\PSoC5/MODE_ISR.c **** extern void access_config(uint8 slave_address, uint8 setting);
  36:Generated_Source\PSoC5/MODE_ISR.c **** extern void write_deadband(uint8 slave_address, uint8 setpoint, uint8 TOL);
  37:Generated_Source\PSoC5/MODE_ISR.c **** extern volatile int mode;
  38:Generated_Source\PSoC5/MODE_ISR.c **** extern uint8 slave_address;
  39:Generated_Source\PSoC5/MODE_ISR.c **** extern uint8 setpoint;
  40:Generated_Source\PSoC5/MODE_ISR.c **** extern uint8 TOL;
  41:Generated_Source\PSoC5/MODE_ISR.c **** 
  42:Generated_Source\PSoC5/MODE_ISR.c **** 
  43:Generated_Source\PSoC5/MODE_ISR.c **** uint8 setting;
  44:Generated_Source\PSoC5/MODE_ISR.c **** uint8 POL;
  45:Generated_Source\PSoC5/MODE_ISR.c **** #define OFF     0
  46:Generated_Source\PSoC5/MODE_ISR.c **** #define COOLING 1
  47:Generated_Source\PSoC5/MODE_ISR.c **** #define HEATING 2
  48:Generated_Source\PSoC5/MODE_ISR.c **** /* `#END` */
  49:Generated_Source\PSoC5/MODE_ISR.c **** 
  50:Generated_Source\PSoC5/MODE_ISR.c **** #ifndef CYINT_IRQ_BASE
  51:Generated_Source\PSoC5/MODE_ISR.c **** #define CYINT_IRQ_BASE      16
  52:Generated_Source\PSoC5/MODE_ISR.c **** #endif /* CYINT_IRQ_BASE */
  53:Generated_Source\PSoC5/MODE_ISR.c **** #ifndef CYINT_VECT_TABLE
  54:Generated_Source\PSoC5/MODE_ISR.c **** #define CYINT_VECT_TABLE    ((cyisraddress **) CYREG_NVIC_VECT_OFFSET)
  55:Generated_Source\PSoC5/MODE_ISR.c **** #endif /* CYINT_VECT_TABLE */
  56:Generated_Source\PSoC5/MODE_ISR.c **** 
  57:Generated_Source\PSoC5/MODE_ISR.c **** /* Declared in startup, used to set unused interrupts to. */
  58:Generated_Source\PSoC5/MODE_ISR.c **** CY_ISR_PROTO(IntDefaultHandler);
  59:Generated_Source\PSoC5/MODE_ISR.c **** 
  60:Generated_Source\PSoC5/MODE_ISR.c **** 
  61:Generated_Source\PSoC5/MODE_ISR.c **** /*******************************************************************************
  62:Generated_Source\PSoC5/MODE_ISR.c **** * Function Name: MODE_ISR_Start
  63:Generated_Source\PSoC5/MODE_ISR.c **** ********************************************************************************
  64:Generated_Source\PSoC5/MODE_ISR.c **** *
  65:Generated_Source\PSoC5/MODE_ISR.c **** * Summary:
  66:Generated_Source\PSoC5/MODE_ISR.c **** *  Set up the interrupt and enable it. This function disables the interrupt, 
  67:Generated_Source\PSoC5/MODE_ISR.c **** *  sets the default interrupt vector, sets the priority from the value in the
  68:Generated_Source\PSoC5/MODE_ISR.c **** *  Design Wide Resources Interrupt Editor, then enables the interrupt to the 
  69:Generated_Source\PSoC5/MODE_ISR.c **** *  interrupt controller.
  70:Generated_Source\PSoC5/MODE_ISR.c **** *
  71:Generated_Source\PSoC5/MODE_ISR.c **** * Parameters:  
  72:Generated_Source\PSoC5/MODE_ISR.c **** *   None
  73:Generated_Source\PSoC5/MODE_ISR.c **** *
  74:Generated_Source\PSoC5/MODE_ISR.c **** * Return:
  75:Generated_Source\PSoC5/MODE_ISR.c **** *   None
  76:Generated_Source\PSoC5/MODE_ISR.c **** *
  77:Generated_Source\PSoC5/MODE_ISR.c **** *******************************************************************************/
  78:Generated_Source\PSoC5/MODE_ISR.c **** void MODE_ISR_Start(void)
  79:Generated_Source\PSoC5/MODE_ISR.c **** {
  80:Generated_Source\PSoC5/MODE_ISR.c ****     /* For all we know the interrupt is active. */
  81:Generated_Source\PSoC5/MODE_ISR.c ****     MODE_ISR_Disable();
  82:Generated_Source\PSoC5/MODE_ISR.c **** 
  83:Generated_Source\PSoC5/MODE_ISR.c ****     /* Set the ISR to point to the MODE_ISR Interrupt. */
  84:Generated_Source\PSoC5/MODE_ISR.c ****     MODE_ISR_SetVector(&MODE_ISR_Interrupt);
  85:Generated_Source\PSoC5/MODE_ISR.c **** 
  86:Generated_Source\PSoC5/MODE_ISR.c ****     /* Set the priority. */
  87:Generated_Source\PSoC5/MODE_ISR.c ****     MODE_ISR_SetPriority((uint8)MODE_ISR_INTC_PRIOR_NUMBER);
ARM GAS  C:\Users\dmarsch\AppData\Local\Temp\ccUnypUV.s 			page 3


  88:Generated_Source\PSoC5/MODE_ISR.c **** 
  89:Generated_Source\PSoC5/MODE_ISR.c ****     /* Enable it. */
  90:Generated_Source\PSoC5/MODE_ISR.c ****     MODE_ISR_Enable();
  91:Generated_Source\PSoC5/MODE_ISR.c **** }
  92:Generated_Source\PSoC5/MODE_ISR.c **** 
  93:Generated_Source\PSoC5/MODE_ISR.c **** 
  94:Generated_Source\PSoC5/MODE_ISR.c **** /*******************************************************************************
  95:Generated_Source\PSoC5/MODE_ISR.c **** * Function Name: MODE_ISR_StartEx
  96:Generated_Source\PSoC5/MODE_ISR.c **** ********************************************************************************
  97:Generated_Source\PSoC5/MODE_ISR.c **** *
  98:Generated_Source\PSoC5/MODE_ISR.c **** * Summary:
  99:Generated_Source\PSoC5/MODE_ISR.c **** *  Sets up the interrupt and enables it. This function disables the interrupt,
 100:Generated_Source\PSoC5/MODE_ISR.c **** *  sets the interrupt vector based on the address passed in, sets the priority 
 101:Generated_Source\PSoC5/MODE_ISR.c **** *  from the value in the Design Wide Resources Interrupt Editor, then enables 
 102:Generated_Source\PSoC5/MODE_ISR.c **** *  the interrupt to the interrupt controller.
 103:Generated_Source\PSoC5/MODE_ISR.c **** *  
 104:Generated_Source\PSoC5/MODE_ISR.c **** *  When defining ISR functions, the CY_ISR and CY_ISR_PROTO macros should be 
 105:Generated_Source\PSoC5/MODE_ISR.c **** *  used to provide consistent definition across compilers:
 106:Generated_Source\PSoC5/MODE_ISR.c **** *  
 107:Generated_Source\PSoC5/MODE_ISR.c **** *  Function definition example:
 108:Generated_Source\PSoC5/MODE_ISR.c **** *   CY_ISR(MyISR)
 109:Generated_Source\PSoC5/MODE_ISR.c **** *   {
 110:Generated_Source\PSoC5/MODE_ISR.c **** *   }
 111:Generated_Source\PSoC5/MODE_ISR.c **** *   Function prototype example:
 112:Generated_Source\PSoC5/MODE_ISR.c **** *   CY_ISR_PROTO(MyISR);
 113:Generated_Source\PSoC5/MODE_ISR.c **** *
 114:Generated_Source\PSoC5/MODE_ISR.c **** * Parameters:  
 115:Generated_Source\PSoC5/MODE_ISR.c **** *   address: Address of the ISR to set in the interrupt vector table.
 116:Generated_Source\PSoC5/MODE_ISR.c **** *
 117:Generated_Source\PSoC5/MODE_ISR.c **** * Return:
 118:Generated_Source\PSoC5/MODE_ISR.c **** *   None
 119:Generated_Source\PSoC5/MODE_ISR.c **** *
 120:Generated_Source\PSoC5/MODE_ISR.c **** *******************************************************************************/
 121:Generated_Source\PSoC5/MODE_ISR.c **** void MODE_ISR_StartEx(cyisraddress address)
 122:Generated_Source\PSoC5/MODE_ISR.c **** {
 123:Generated_Source\PSoC5/MODE_ISR.c ****     /* For all we know the interrupt is active. */
 124:Generated_Source\PSoC5/MODE_ISR.c ****     MODE_ISR_Disable();
 125:Generated_Source\PSoC5/MODE_ISR.c **** 
 126:Generated_Source\PSoC5/MODE_ISR.c ****     /* Set the ISR to point to the MODE_ISR Interrupt. */
 127:Generated_Source\PSoC5/MODE_ISR.c ****     MODE_ISR_SetVector(address);
 128:Generated_Source\PSoC5/MODE_ISR.c **** 
 129:Generated_Source\PSoC5/MODE_ISR.c ****     /* Set the priority. */
 130:Generated_Source\PSoC5/MODE_ISR.c ****     MODE_ISR_SetPriority((uint8)MODE_ISR_INTC_PRIOR_NUMBER);
 131:Generated_Source\PSoC5/MODE_ISR.c **** 
 132:Generated_Source\PSoC5/MODE_ISR.c ****     /* Enable it. */
 133:Generated_Source\PSoC5/MODE_ISR.c ****     MODE_ISR_Enable();
 134:Generated_Source\PSoC5/MODE_ISR.c **** }
 135:Generated_Source\PSoC5/MODE_ISR.c **** 
 136:Generated_Source\PSoC5/MODE_ISR.c **** 
 137:Generated_Source\PSoC5/MODE_ISR.c **** /*******************************************************************************
 138:Generated_Source\PSoC5/MODE_ISR.c **** * Function Name: MODE_ISR_Stop
 139:Generated_Source\PSoC5/MODE_ISR.c **** ********************************************************************************
 140:Generated_Source\PSoC5/MODE_ISR.c **** *
 141:Generated_Source\PSoC5/MODE_ISR.c **** * Summary:
 142:Generated_Source\PSoC5/MODE_ISR.c **** *   Disables and removes the interrupt.
 143:Generated_Source\PSoC5/MODE_ISR.c **** *
 144:Generated_Source\PSoC5/MODE_ISR.c **** * Parameters:  
ARM GAS  C:\Users\dmarsch\AppData\Local\Temp\ccUnypUV.s 			page 4


 145:Generated_Source\PSoC5/MODE_ISR.c **** *   None
 146:Generated_Source\PSoC5/MODE_ISR.c **** *
 147:Generated_Source\PSoC5/MODE_ISR.c **** * Return:
 148:Generated_Source\PSoC5/MODE_ISR.c **** *   None
 149:Generated_Source\PSoC5/MODE_ISR.c **** *
 150:Generated_Source\PSoC5/MODE_ISR.c **** *******************************************************************************/
 151:Generated_Source\PSoC5/MODE_ISR.c **** void MODE_ISR_Stop(void)
 152:Generated_Source\PSoC5/MODE_ISR.c **** {
 153:Generated_Source\PSoC5/MODE_ISR.c ****     /* Disable this interrupt. */
 154:Generated_Source\PSoC5/MODE_ISR.c ****     MODE_ISR_Disable();
 155:Generated_Source\PSoC5/MODE_ISR.c **** 
 156:Generated_Source\PSoC5/MODE_ISR.c ****     /* Set the ISR to point to the passive one. */
 157:Generated_Source\PSoC5/MODE_ISR.c ****     MODE_ISR_SetVector(&IntDefaultHandler);
 158:Generated_Source\PSoC5/MODE_ISR.c **** }
 159:Generated_Source\PSoC5/MODE_ISR.c **** 
 160:Generated_Source\PSoC5/MODE_ISR.c **** 
 161:Generated_Source\PSoC5/MODE_ISR.c **** /*******************************************************************************
 162:Generated_Source\PSoC5/MODE_ISR.c **** * Function Name: MODE_ISR_Interrupt
 163:Generated_Source\PSoC5/MODE_ISR.c **** ********************************************************************************
 164:Generated_Source\PSoC5/MODE_ISR.c **** *
 165:Generated_Source\PSoC5/MODE_ISR.c **** * Summary:
 166:Generated_Source\PSoC5/MODE_ISR.c **** *   The default Interrupt Service Routine for MODE_ISR.
 167:Generated_Source\PSoC5/MODE_ISR.c **** *
 168:Generated_Source\PSoC5/MODE_ISR.c **** *   Add custom code between the coments to keep the next version of this file
 169:Generated_Source\PSoC5/MODE_ISR.c **** *   from over writting your code.
 170:Generated_Source\PSoC5/MODE_ISR.c **** *
 171:Generated_Source\PSoC5/MODE_ISR.c **** * Parameters:  
 172:Generated_Source\PSoC5/MODE_ISR.c **** *
 173:Generated_Source\PSoC5/MODE_ISR.c **** * Return:
 174:Generated_Source\PSoC5/MODE_ISR.c **** *   None
 175:Generated_Source\PSoC5/MODE_ISR.c **** *
 176:Generated_Source\PSoC5/MODE_ISR.c **** *******************************************************************************/
 177:Generated_Source\PSoC5/MODE_ISR.c **** CY_ISR(MODE_ISR_Interrupt)
 178:Generated_Source\PSoC5/MODE_ISR.c **** {
  28              		.loc 1 178 0
  29              		.cfi_startproc
  30              		@ args = 0, pretend = 0, frame = 0
  31              		@ frame_needed = 0, uses_anonymous_args = 0
  32 0000 38B5     		push	{r3, r4, r5, lr}
  33              		.cfi_def_cfa_offset 16
  34              		.cfi_offset 3, -16
  35              		.cfi_offset 4, -12
  36              		.cfi_offset 5, -8
  37              		.cfi_offset 14, -4
 179:Generated_Source\PSoC5/MODE_ISR.c ****     #ifdef MODE_ISR_INTERRUPT_INTERRUPT_CALLBACK
 180:Generated_Source\PSoC5/MODE_ISR.c ****         MODE_ISR_Interrupt_InterruptCallback();
 181:Generated_Source\PSoC5/MODE_ISR.c ****     #endif /* MODE_ISR_INTERRUPT_INTERRUPT_CALLBACK */ 
 182:Generated_Source\PSoC5/MODE_ISR.c **** 
 183:Generated_Source\PSoC5/MODE_ISR.c ****     /*  Place your Interrupt code here. */
 184:Generated_Source\PSoC5/MODE_ISR.c ****     /* `#START MODE_ISR_Interrupt` */
 185:Generated_Source\PSoC5/MODE_ISR.c ****     CyGlobalIntEnable;
  38              		.loc 1 185 0
  39              		.syntax unified
  40              	@ 185 "Generated_Source\PSoC5\MODE_ISR.c" 1
  41 0002 62B6     		CPSIE   i
  42              	@ 0 "" 2
 186:Generated_Source\PSoC5/MODE_ISR.c ****     switch(mode)
ARM GAS  C:\Users\dmarsch\AppData\Local\Temp\ccUnypUV.s 			page 5


  43              		.loc 1 186 0
  44              		.thumb
  45              		.syntax unified
  46 0004 224B     		ldr	r3, .L9
  47 0006 1B68     		ldr	r3, [r3]
  48 0008 012B     		cmp	r3, #1
  49 000a 18D0     		beq	.L3
  50 000c 022B     		cmp	r3, #2
  51 000e 2BD0     		beq	.L4
  52 0010 002B     		cmp	r3, #0
  53 0012 33D1     		bne	.L7
 187:Generated_Source\PSoC5/MODE_ISR.c ****     {
 188:Generated_Source\PSoC5/MODE_ISR.c ****         case OFF:
 189:Generated_Source\PSoC5/MODE_ISR.c ****             mode = COOLING;
  54              		.loc 1 189 0
  55 0014 0122     		movs	r2, #1
  56 0016 1E4B     		ldr	r3, .L9
  57 0018 1A60     		str	r2, [r3]
 190:Generated_Source\PSoC5/MODE_ISR.c ****             POL = 2;                    //set polarity bit to 1 for heating in config register
  58              		.loc 1 190 0
  59 001a 1E4D     		ldr	r5, .L9+4
  60 001c 0223     		movs	r3, #2
  61 001e 2B70     		strb	r3, [r5]
 191:Generated_Source\PSoC5/MODE_ISR.c ****             write_deadband(slave_address, setpoint, TOL);
  62              		.loc 1 191 0
  63 0020 1D4C     		ldr	r4, .L9+8
  64 0022 1E4B     		ldr	r3, .L9+12
  65 0024 1A78     		ldrb	r2, [r3]	@ zero_extendqisi2
  66 0026 1E4B     		ldr	r3, .L9+16
  67 0028 1978     		ldrb	r1, [r3]	@ zero_extendqisi2
  68 002a 2078     		ldrb	r0, [r4]	@ zero_extendqisi2
  69 002c FFF7FEFF 		bl	write_deadband
  70              	.LVL0:
 192:Generated_Source\PSoC5/MODE_ISR.c ****             access_config(slave_address,POL);
  71              		.loc 1 192 0
  72 0030 2978     		ldrb	r1, [r5]	@ zero_extendqisi2
  73 0032 2078     		ldrb	r0, [r4]	@ zero_extendqisi2
  74 0034 FFF7FEFF 		bl	access_config
  75              	.LVL1:
 193:Generated_Source\PSoC5/MODE_ISR.c ****             TOUT_ISR_Start();        
  76              		.loc 1 193 0
  77 0038 FFF7FEFF 		bl	TOUT_ISR_Start
  78              	.LVL2:
 194:Generated_Source\PSoC5/MODE_ISR.c ****             break;
  79              		.loc 1 194 0
  80 003c 38BD     		pop	{r3, r4, r5, pc}
  81              	.L3:
 195:Generated_Source\PSoC5/MODE_ISR.c ****         case COOLING:
 196:Generated_Source\PSoC5/MODE_ISR.c ****             mode = HEATING;
  82              		.loc 1 196 0
  83 003e 0222     		movs	r2, #2
  84 0040 134B     		ldr	r3, .L9
  85 0042 1A60     		str	r2, [r3]
 197:Generated_Source\PSoC5/MODE_ISR.c ****             POL = 0;                    //set polarity bit to 0 for heating
  86              		.loc 1 197 0
  87 0044 134D     		ldr	r5, .L9+4
  88 0046 0023     		movs	r3, #0
ARM GAS  C:\Users\dmarsch\AppData\Local\Temp\ccUnypUV.s 			page 6


  89 0048 2B70     		strb	r3, [r5]
 198:Generated_Source\PSoC5/MODE_ISR.c ****             write_deadband(slave_address, setpoint, TOL);
  90              		.loc 1 198 0
  91 004a 134C     		ldr	r4, .L9+8
  92 004c 134B     		ldr	r3, .L9+12
  93 004e 1A78     		ldrb	r2, [r3]	@ zero_extendqisi2
  94 0050 134B     		ldr	r3, .L9+16
  95 0052 1978     		ldrb	r1, [r3]	@ zero_extendqisi2
  96 0054 2078     		ldrb	r0, [r4]	@ zero_extendqisi2
  97 0056 FFF7FEFF 		bl	write_deadband
  98              	.LVL3:
 199:Generated_Source\PSoC5/MODE_ISR.c ****             access_config(slave_address,POL);
  99              		.loc 1 199 0
 100 005a 2978     		ldrb	r1, [r5]	@ zero_extendqisi2
 101 005c 2078     		ldrb	r0, [r4]	@ zero_extendqisi2
 102 005e FFF7FEFF 		bl	access_config
 103              	.LVL4:
 200:Generated_Source\PSoC5/MODE_ISR.c ****             TOUT_ISR_Start();
 104              		.loc 1 200 0
 105 0062 FFF7FEFF 		bl	TOUT_ISR_Start
 106              	.LVL5:
 201:Generated_Source\PSoC5/MODE_ISR.c ****             break;
 107              		.loc 1 201 0
 108 0066 38BD     		pop	{r3, r4, r5, pc}
 109              	.L4:
 202:Generated_Source\PSoC5/MODE_ISR.c ****         case HEATING:
 203:Generated_Source\PSoC5/MODE_ISR.c ****             mode = OFF;
 110              		.loc 1 203 0
 111 0068 0020     		movs	r0, #0
 112 006a 094B     		ldr	r3, .L9
 113 006c 1860     		str	r0, [r3]
 204:Generated_Source\PSoC5/MODE_ISR.c ****             MOTOR_Write(0);
 114              		.loc 1 204 0
 115 006e FFF7FEFF 		bl	MOTOR_Write
 116              	.LVL6:
 205:Generated_Source\PSoC5/MODE_ISR.c ****             MOTOR_ISR_Stop();
 117              		.loc 1 205 0
 118 0072 FFF7FEFF 		bl	MOTOR_ISR_Stop
 119              	.LVL7:
 206:Generated_Source\PSoC5/MODE_ISR.c ****             TOUT_ISR_Stop();
 120              		.loc 1 206 0
 121 0076 FFF7FEFF 		bl	TOUT_ISR_Stop
 122              	.LVL8:
 207:Generated_Source\PSoC5/MODE_ISR.c ****             break;
 123              		.loc 1 207 0
 124 007a 38BD     		pop	{r3, r4, r5, pc}
 125              	.L7:
 208:Generated_Source\PSoC5/MODE_ISR.c ****         default:
 209:Generated_Source\PSoC5/MODE_ISR.c ****             mode = OFF;
 126              		.loc 1 209 0
 127 007c 0020     		movs	r0, #0
 128 007e 044B     		ldr	r3, .L9
 129 0080 1860     		str	r0, [r3]
 210:Generated_Source\PSoC5/MODE_ISR.c ****             MOTOR_Write(0);
 130              		.loc 1 210 0
 131 0082 FFF7FEFF 		bl	MOTOR_Write
 132              	.LVL9:
ARM GAS  C:\Users\dmarsch\AppData\Local\Temp\ccUnypUV.s 			page 7


 211:Generated_Source\PSoC5/MODE_ISR.c ****             MOTOR_ISR_Stop();
 133              		.loc 1 211 0
 134 0086 FFF7FEFF 		bl	MOTOR_ISR_Stop
 135              	.LVL10:
 212:Generated_Source\PSoC5/MODE_ISR.c ****             TOUT_ISR_Stop();
 136              		.loc 1 212 0
 137 008a FFF7FEFF 		bl	TOUT_ISR_Stop
 138              	.LVL11:
 139 008e 38BD     		pop	{r3, r4, r5, pc}
 140              	.L10:
 141              		.align	2
 142              	.L9:
 143 0090 00000000 		.word	mode
 144 0094 00000000 		.word	POL
 145 0098 00000000 		.word	slave_address
 146 009c 00000000 		.word	TOL
 147 00a0 00000000 		.word	setpoint
 148              		.cfi_endproc
 149              	.LFE3:
 150              		.size	MODE_ISR_Interrupt, .-MODE_ISR_Interrupt
 151              		.section	.text.MODE_ISR_SetVector,"ax",%progbits
 152              		.align	2
 153              		.global	MODE_ISR_SetVector
 154              		.thumb
 155              		.thumb_func
 156              		.type	MODE_ISR_SetVector, %function
 157              	MODE_ISR_SetVector:
 158              	.LFB4:
 213:Generated_Source\PSoC5/MODE_ISR.c ****             break;
 214:Generated_Source\PSoC5/MODE_ISR.c ****     }
 215:Generated_Source\PSoC5/MODE_ISR.c **** //    access_config(slave_address,POL);
 216:Generated_Source\PSoC5/MODE_ISR.c ****     /* `#END` */
 217:Generated_Source\PSoC5/MODE_ISR.c **** }
 218:Generated_Source\PSoC5/MODE_ISR.c **** 
 219:Generated_Source\PSoC5/MODE_ISR.c **** 
 220:Generated_Source\PSoC5/MODE_ISR.c **** /*******************************************************************************
 221:Generated_Source\PSoC5/MODE_ISR.c **** * Function Name: MODE_ISR_SetVector
 222:Generated_Source\PSoC5/MODE_ISR.c **** ********************************************************************************
 223:Generated_Source\PSoC5/MODE_ISR.c **** *
 224:Generated_Source\PSoC5/MODE_ISR.c **** * Summary:
 225:Generated_Source\PSoC5/MODE_ISR.c **** *   Change the ISR vector for the Interrupt. Note calling MODE_ISR_Start
 226:Generated_Source\PSoC5/MODE_ISR.c **** *   will override any effect this method would have had. To set the vector 
 227:Generated_Source\PSoC5/MODE_ISR.c **** *   before the component has been started use MODE_ISR_StartEx instead.
 228:Generated_Source\PSoC5/MODE_ISR.c **** * 
 229:Generated_Source\PSoC5/MODE_ISR.c **** *   When defining ISR functions, the CY_ISR and CY_ISR_PROTO macros should be 
 230:Generated_Source\PSoC5/MODE_ISR.c **** *   used to provide consistent definition across compilers:
 231:Generated_Source\PSoC5/MODE_ISR.c **** *
 232:Generated_Source\PSoC5/MODE_ISR.c **** *   Function definition example:
 233:Generated_Source\PSoC5/MODE_ISR.c **** *   CY_ISR(MyISR)
 234:Generated_Source\PSoC5/MODE_ISR.c **** *   {
 235:Generated_Source\PSoC5/MODE_ISR.c **** *   }
 236:Generated_Source\PSoC5/MODE_ISR.c **** *
 237:Generated_Source\PSoC5/MODE_ISR.c **** *   Function prototype example:
 238:Generated_Source\PSoC5/MODE_ISR.c **** *     CY_ISR_PROTO(MyISR);
 239:Generated_Source\PSoC5/MODE_ISR.c **** *
 240:Generated_Source\PSoC5/MODE_ISR.c **** * Parameters:
 241:Generated_Source\PSoC5/MODE_ISR.c **** *   address: Address of the ISR to set in the interrupt vector table.
ARM GAS  C:\Users\dmarsch\AppData\Local\Temp\ccUnypUV.s 			page 8


 242:Generated_Source\PSoC5/MODE_ISR.c **** *
 243:Generated_Source\PSoC5/MODE_ISR.c **** * Return:
 244:Generated_Source\PSoC5/MODE_ISR.c **** *   None
 245:Generated_Source\PSoC5/MODE_ISR.c **** *
 246:Generated_Source\PSoC5/MODE_ISR.c **** *******************************************************************************/
 247:Generated_Source\PSoC5/MODE_ISR.c **** void MODE_ISR_SetVector(cyisraddress address)
 248:Generated_Source\PSoC5/MODE_ISR.c **** {
 159              		.loc 1 248 0
 160              		.cfi_startproc
 161              		@ args = 0, pretend = 0, frame = 0
 162              		@ frame_needed = 0, uses_anonymous_args = 0
 163              		@ link register save eliminated.
 164              	.LVL12:
 249:Generated_Source\PSoC5/MODE_ISR.c ****     cyisraddress * ramVectorTable;
 250:Generated_Source\PSoC5/MODE_ISR.c **** 
 251:Generated_Source\PSoC5/MODE_ISR.c ****     ramVectorTable = (cyisraddress *) *CYINT_VECT_TABLE;
 165              		.loc 1 251 0
 166 0000 014B     		ldr	r3, .L12
 167 0002 1B68     		ldr	r3, [r3]
 168              	.LVL13:
 252:Generated_Source\PSoC5/MODE_ISR.c **** 
 253:Generated_Source\PSoC5/MODE_ISR.c ****     ramVectorTable[CYINT_IRQ_BASE + (uint32)MODE_ISR__INTC_NUMBER] = address;
 169              		.loc 1 253 0
 170 0004 1864     		str	r0, [r3, #64]
 171 0006 7047     		bx	lr
 172              	.L13:
 173              		.align	2
 174              	.L12:
 175 0008 08ED00E0 		.word	-536810232
 176              		.cfi_endproc
 177              	.LFE4:
 178              		.size	MODE_ISR_SetVector, .-MODE_ISR_SetVector
 179              		.section	.text.MODE_ISR_GetVector,"ax",%progbits
 180              		.align	2
 181              		.global	MODE_ISR_GetVector
 182              		.thumb
 183              		.thumb_func
 184              		.type	MODE_ISR_GetVector, %function
 185              	MODE_ISR_GetVector:
 186              	.LFB5:
 254:Generated_Source\PSoC5/MODE_ISR.c **** }
 255:Generated_Source\PSoC5/MODE_ISR.c **** 
 256:Generated_Source\PSoC5/MODE_ISR.c **** 
 257:Generated_Source\PSoC5/MODE_ISR.c **** /*******************************************************************************
 258:Generated_Source\PSoC5/MODE_ISR.c **** * Function Name: MODE_ISR_GetVector
 259:Generated_Source\PSoC5/MODE_ISR.c **** ********************************************************************************
 260:Generated_Source\PSoC5/MODE_ISR.c **** *
 261:Generated_Source\PSoC5/MODE_ISR.c **** * Summary:
 262:Generated_Source\PSoC5/MODE_ISR.c **** *   Gets the "address" of the current ISR vector for the Interrupt.
 263:Generated_Source\PSoC5/MODE_ISR.c **** *
 264:Generated_Source\PSoC5/MODE_ISR.c **** * Parameters:
 265:Generated_Source\PSoC5/MODE_ISR.c **** *   None
 266:Generated_Source\PSoC5/MODE_ISR.c **** *
 267:Generated_Source\PSoC5/MODE_ISR.c **** * Return:
 268:Generated_Source\PSoC5/MODE_ISR.c **** *   Address of the ISR in the interrupt vector table.
 269:Generated_Source\PSoC5/MODE_ISR.c **** *
 270:Generated_Source\PSoC5/MODE_ISR.c **** *******************************************************************************/
ARM GAS  C:\Users\dmarsch\AppData\Local\Temp\ccUnypUV.s 			page 9


 271:Generated_Source\PSoC5/MODE_ISR.c **** cyisraddress MODE_ISR_GetVector(void)
 272:Generated_Source\PSoC5/MODE_ISR.c **** {
 187              		.loc 1 272 0
 188              		.cfi_startproc
 189              		@ args = 0, pretend = 0, frame = 0
 190              		@ frame_needed = 0, uses_anonymous_args = 0
 191              		@ link register save eliminated.
 273:Generated_Source\PSoC5/MODE_ISR.c ****     cyisraddress * ramVectorTable;
 274:Generated_Source\PSoC5/MODE_ISR.c **** 
 275:Generated_Source\PSoC5/MODE_ISR.c ****     ramVectorTable = (cyisraddress *) *CYINT_VECT_TABLE;
 192              		.loc 1 275 0
 193 0000 014B     		ldr	r3, .L15
 194 0002 1B68     		ldr	r3, [r3]
 195              	.LVL14:
 276:Generated_Source\PSoC5/MODE_ISR.c **** 
 277:Generated_Source\PSoC5/MODE_ISR.c ****     return ramVectorTable[CYINT_IRQ_BASE + (uint32)MODE_ISR__INTC_NUMBER];
 278:Generated_Source\PSoC5/MODE_ISR.c **** }
 196              		.loc 1 278 0
 197 0004 186C     		ldr	r0, [r3, #64]
 198 0006 7047     		bx	lr
 199              	.L16:
 200              		.align	2
 201              	.L15:
 202 0008 08ED00E0 		.word	-536810232
 203              		.cfi_endproc
 204              	.LFE5:
 205              		.size	MODE_ISR_GetVector, .-MODE_ISR_GetVector
 206              		.section	.text.MODE_ISR_SetPriority,"ax",%progbits
 207              		.align	2
 208              		.global	MODE_ISR_SetPriority
 209              		.thumb
 210              		.thumb_func
 211              		.type	MODE_ISR_SetPriority, %function
 212              	MODE_ISR_SetPriority:
 213              	.LFB6:
 279:Generated_Source\PSoC5/MODE_ISR.c **** 
 280:Generated_Source\PSoC5/MODE_ISR.c **** 
 281:Generated_Source\PSoC5/MODE_ISR.c **** /*******************************************************************************
 282:Generated_Source\PSoC5/MODE_ISR.c **** * Function Name: MODE_ISR_SetPriority
 283:Generated_Source\PSoC5/MODE_ISR.c **** ********************************************************************************
 284:Generated_Source\PSoC5/MODE_ISR.c **** *
 285:Generated_Source\PSoC5/MODE_ISR.c **** * Summary:
 286:Generated_Source\PSoC5/MODE_ISR.c **** *   Sets the Priority of the Interrupt. 
 287:Generated_Source\PSoC5/MODE_ISR.c **** *
 288:Generated_Source\PSoC5/MODE_ISR.c **** *   Note calling MODE_ISR_Start or MODE_ISR_StartEx will 
 289:Generated_Source\PSoC5/MODE_ISR.c **** *   override any effect this API would have had. This API should only be called
 290:Generated_Source\PSoC5/MODE_ISR.c **** *   after MODE_ISR_Start or MODE_ISR_StartEx has been called. 
 291:Generated_Source\PSoC5/MODE_ISR.c **** *   To set the initial priority for the component, use the Design-Wide Resources
 292:Generated_Source\PSoC5/MODE_ISR.c **** *   Interrupt Editor.
 293:Generated_Source\PSoC5/MODE_ISR.c **** *
 294:Generated_Source\PSoC5/MODE_ISR.c **** *   Note This API has no effect on Non-maskable interrupt NMI).
 295:Generated_Source\PSoC5/MODE_ISR.c **** *
 296:Generated_Source\PSoC5/MODE_ISR.c **** * Parameters:
 297:Generated_Source\PSoC5/MODE_ISR.c **** *   priority: Priority of the interrupt, 0 being the highest priority
 298:Generated_Source\PSoC5/MODE_ISR.c **** *             PSoC 3 and PSoC 5LP: Priority is from 0 to 7.
 299:Generated_Source\PSoC5/MODE_ISR.c **** *             PSoC 4: Priority is from 0 to 3.
 300:Generated_Source\PSoC5/MODE_ISR.c **** *
ARM GAS  C:\Users\dmarsch\AppData\Local\Temp\ccUnypUV.s 			page 10


 301:Generated_Source\PSoC5/MODE_ISR.c **** * Return:
 302:Generated_Source\PSoC5/MODE_ISR.c **** *   None
 303:Generated_Source\PSoC5/MODE_ISR.c **** *
 304:Generated_Source\PSoC5/MODE_ISR.c **** *******************************************************************************/
 305:Generated_Source\PSoC5/MODE_ISR.c **** void MODE_ISR_SetPriority(uint8 priority)
 306:Generated_Source\PSoC5/MODE_ISR.c **** {
 214              		.loc 1 306 0
 215              		.cfi_startproc
 216              		@ args = 0, pretend = 0, frame = 0
 217              		@ frame_needed = 0, uses_anonymous_args = 0
 218              		@ link register save eliminated.
 219              	.LVL15:
 307:Generated_Source\PSoC5/MODE_ISR.c ****     *MODE_ISR_INTC_PRIOR = priority << 5;
 220              		.loc 1 307 0
 221 0000 4001     		lsls	r0, r0, #5
 222              	.LVL16:
 223 0002 C0B2     		uxtb	r0, r0
 224 0004 014B     		ldr	r3, .L18
 225 0006 1870     		strb	r0, [r3]
 226 0008 7047     		bx	lr
 227              	.L19:
 228 000a 00BF     		.align	2
 229              	.L18:
 230 000c 00E400E0 		.word	-536812544
 231              		.cfi_endproc
 232              	.LFE6:
 233              		.size	MODE_ISR_SetPriority, .-MODE_ISR_SetPriority
 234              		.section	.text.MODE_ISR_GetPriority,"ax",%progbits
 235              		.align	2
 236              		.global	MODE_ISR_GetPriority
 237              		.thumb
 238              		.thumb_func
 239              		.type	MODE_ISR_GetPriority, %function
 240              	MODE_ISR_GetPriority:
 241              	.LFB7:
 308:Generated_Source\PSoC5/MODE_ISR.c **** }
 309:Generated_Source\PSoC5/MODE_ISR.c **** 
 310:Generated_Source\PSoC5/MODE_ISR.c **** 
 311:Generated_Source\PSoC5/MODE_ISR.c **** /*******************************************************************************
 312:Generated_Source\PSoC5/MODE_ISR.c **** * Function Name: MODE_ISR_GetPriority
 313:Generated_Source\PSoC5/MODE_ISR.c **** ********************************************************************************
 314:Generated_Source\PSoC5/MODE_ISR.c **** *
 315:Generated_Source\PSoC5/MODE_ISR.c **** * Summary:
 316:Generated_Source\PSoC5/MODE_ISR.c **** *   Gets the Priority of the Interrupt.
 317:Generated_Source\PSoC5/MODE_ISR.c **** *
 318:Generated_Source\PSoC5/MODE_ISR.c **** * Parameters:
 319:Generated_Source\PSoC5/MODE_ISR.c **** *   None
 320:Generated_Source\PSoC5/MODE_ISR.c **** *
 321:Generated_Source\PSoC5/MODE_ISR.c **** * Return:
 322:Generated_Source\PSoC5/MODE_ISR.c **** *   Priority of the interrupt, 0 being the highest priority
 323:Generated_Source\PSoC5/MODE_ISR.c **** *    PSoC 3 and PSoC 5LP: Priority is from 0 to 7.
 324:Generated_Source\PSoC5/MODE_ISR.c **** *    PSoC 4: Priority is from 0 to 3.
 325:Generated_Source\PSoC5/MODE_ISR.c **** *
 326:Generated_Source\PSoC5/MODE_ISR.c **** *******************************************************************************/
 327:Generated_Source\PSoC5/MODE_ISR.c **** uint8 MODE_ISR_GetPriority(void)
 328:Generated_Source\PSoC5/MODE_ISR.c **** {
 242              		.loc 1 328 0
ARM GAS  C:\Users\dmarsch\AppData\Local\Temp\ccUnypUV.s 			page 11


 243              		.cfi_startproc
 244              		@ args = 0, pretend = 0, frame = 0
 245              		@ frame_needed = 0, uses_anonymous_args = 0
 246              		@ link register save eliminated.
 329:Generated_Source\PSoC5/MODE_ISR.c ****     uint8 priority;
 330:Generated_Source\PSoC5/MODE_ISR.c **** 
 331:Generated_Source\PSoC5/MODE_ISR.c **** 
 332:Generated_Source\PSoC5/MODE_ISR.c ****     priority = *MODE_ISR_INTC_PRIOR >> 5;
 247              		.loc 1 332 0
 248 0000 014B     		ldr	r3, .L21
 249 0002 1878     		ldrb	r0, [r3]	@ zero_extendqisi2
 250              	.LVL17:
 333:Generated_Source\PSoC5/MODE_ISR.c **** 
 334:Generated_Source\PSoC5/MODE_ISR.c ****     return priority;
 335:Generated_Source\PSoC5/MODE_ISR.c **** }
 251              		.loc 1 335 0
 252 0004 4009     		lsrs	r0, r0, #5
 253              	.LVL18:
 254 0006 7047     		bx	lr
 255              	.L22:
 256              		.align	2
 257              	.L21:
 258 0008 00E400E0 		.word	-536812544
 259              		.cfi_endproc
 260              	.LFE7:
 261              		.size	MODE_ISR_GetPriority, .-MODE_ISR_GetPriority
 262              		.section	.text.MODE_ISR_Enable,"ax",%progbits
 263              		.align	2
 264              		.global	MODE_ISR_Enable
 265              		.thumb
 266              		.thumb_func
 267              		.type	MODE_ISR_Enable, %function
 268              	MODE_ISR_Enable:
 269              	.LFB8:
 336:Generated_Source\PSoC5/MODE_ISR.c **** 
 337:Generated_Source\PSoC5/MODE_ISR.c **** 
 338:Generated_Source\PSoC5/MODE_ISR.c **** /*******************************************************************************
 339:Generated_Source\PSoC5/MODE_ISR.c **** * Function Name: MODE_ISR_Enable
 340:Generated_Source\PSoC5/MODE_ISR.c **** ********************************************************************************
 341:Generated_Source\PSoC5/MODE_ISR.c **** *
 342:Generated_Source\PSoC5/MODE_ISR.c **** * Summary:
 343:Generated_Source\PSoC5/MODE_ISR.c **** *   Enables the interrupt to the interrupt controller. Do not call this function
 344:Generated_Source\PSoC5/MODE_ISR.c **** *   unless ISR_Start() has been called or the functionality of the ISR_Start() 
 345:Generated_Source\PSoC5/MODE_ISR.c **** *   function, which sets the vector and the priority, has been called.
 346:Generated_Source\PSoC5/MODE_ISR.c **** *
 347:Generated_Source\PSoC5/MODE_ISR.c **** * Parameters:
 348:Generated_Source\PSoC5/MODE_ISR.c **** *   None
 349:Generated_Source\PSoC5/MODE_ISR.c **** *
 350:Generated_Source\PSoC5/MODE_ISR.c **** * Return:
 351:Generated_Source\PSoC5/MODE_ISR.c **** *   None
 352:Generated_Source\PSoC5/MODE_ISR.c **** *
 353:Generated_Source\PSoC5/MODE_ISR.c **** *******************************************************************************/
 354:Generated_Source\PSoC5/MODE_ISR.c **** void MODE_ISR_Enable(void)
 355:Generated_Source\PSoC5/MODE_ISR.c **** {
 270              		.loc 1 355 0
 271              		.cfi_startproc
 272              		@ args = 0, pretend = 0, frame = 0
ARM GAS  C:\Users\dmarsch\AppData\Local\Temp\ccUnypUV.s 			page 12


 273              		@ frame_needed = 0, uses_anonymous_args = 0
 274              		@ link register save eliminated.
 356:Generated_Source\PSoC5/MODE_ISR.c ****     /* Enable the general interrupt. */
 357:Generated_Source\PSoC5/MODE_ISR.c ****     *MODE_ISR_INTC_SET_EN = MODE_ISR__INTC_MASK;
 275              		.loc 1 357 0
 276 0000 0122     		movs	r2, #1
 277 0002 014B     		ldr	r3, .L24
 278 0004 1A60     		str	r2, [r3]
 279 0006 7047     		bx	lr
 280              	.L25:
 281              		.align	2
 282              	.L24:
 283 0008 00E100E0 		.word	-536813312
 284              		.cfi_endproc
 285              	.LFE8:
 286              		.size	MODE_ISR_Enable, .-MODE_ISR_Enable
 287              		.section	.text.MODE_ISR_GetState,"ax",%progbits
 288              		.align	2
 289              		.global	MODE_ISR_GetState
 290              		.thumb
 291              		.thumb_func
 292              		.type	MODE_ISR_GetState, %function
 293              	MODE_ISR_GetState:
 294              	.LFB9:
 358:Generated_Source\PSoC5/MODE_ISR.c **** }
 359:Generated_Source\PSoC5/MODE_ISR.c **** 
 360:Generated_Source\PSoC5/MODE_ISR.c **** 
 361:Generated_Source\PSoC5/MODE_ISR.c **** /*******************************************************************************
 362:Generated_Source\PSoC5/MODE_ISR.c **** * Function Name: MODE_ISR_GetState
 363:Generated_Source\PSoC5/MODE_ISR.c **** ********************************************************************************
 364:Generated_Source\PSoC5/MODE_ISR.c **** *
 365:Generated_Source\PSoC5/MODE_ISR.c **** * Summary:
 366:Generated_Source\PSoC5/MODE_ISR.c **** *   Gets the state (enabled, disabled) of the Interrupt.
 367:Generated_Source\PSoC5/MODE_ISR.c **** *
 368:Generated_Source\PSoC5/MODE_ISR.c **** * Parameters:
 369:Generated_Source\PSoC5/MODE_ISR.c **** *   None
 370:Generated_Source\PSoC5/MODE_ISR.c **** *
 371:Generated_Source\PSoC5/MODE_ISR.c **** * Return:
 372:Generated_Source\PSoC5/MODE_ISR.c **** *   1 if enabled, 0 if disabled.
 373:Generated_Source\PSoC5/MODE_ISR.c **** *
 374:Generated_Source\PSoC5/MODE_ISR.c **** *******************************************************************************/
 375:Generated_Source\PSoC5/MODE_ISR.c **** uint8 MODE_ISR_GetState(void)
 376:Generated_Source\PSoC5/MODE_ISR.c **** {
 295              		.loc 1 376 0
 296              		.cfi_startproc
 297              		@ args = 0, pretend = 0, frame = 0
 298              		@ frame_needed = 0, uses_anonymous_args = 0
 299              		@ link register save eliminated.
 377:Generated_Source\PSoC5/MODE_ISR.c ****     /* Get the state of the general interrupt. */
 378:Generated_Source\PSoC5/MODE_ISR.c ****     return ((*MODE_ISR_INTC_SET_EN & (uint32)MODE_ISR__INTC_MASK) != 0u) ? 1u:0u;
 300              		.loc 1 378 0
 301 0000 024B     		ldr	r3, .L27
 302 0002 1868     		ldr	r0, [r3]
 379:Generated_Source\PSoC5/MODE_ISR.c **** }
 303              		.loc 1 379 0
 304 0004 00F00100 		and	r0, r0, #1
 305 0008 7047     		bx	lr
ARM GAS  C:\Users\dmarsch\AppData\Local\Temp\ccUnypUV.s 			page 13


 306              	.L28:
 307 000a 00BF     		.align	2
 308              	.L27:
 309 000c 00E100E0 		.word	-536813312
 310              		.cfi_endproc
 311              	.LFE9:
 312              		.size	MODE_ISR_GetState, .-MODE_ISR_GetState
 313              		.section	.text.MODE_ISR_Disable,"ax",%progbits
 314              		.align	2
 315              		.global	MODE_ISR_Disable
 316              		.thumb
 317              		.thumb_func
 318              		.type	MODE_ISR_Disable, %function
 319              	MODE_ISR_Disable:
 320              	.LFB10:
 380:Generated_Source\PSoC5/MODE_ISR.c **** 
 381:Generated_Source\PSoC5/MODE_ISR.c **** 
 382:Generated_Source\PSoC5/MODE_ISR.c **** /*******************************************************************************
 383:Generated_Source\PSoC5/MODE_ISR.c **** * Function Name: MODE_ISR_Disable
 384:Generated_Source\PSoC5/MODE_ISR.c **** ********************************************************************************
 385:Generated_Source\PSoC5/MODE_ISR.c **** *
 386:Generated_Source\PSoC5/MODE_ISR.c **** * Summary:
 387:Generated_Source\PSoC5/MODE_ISR.c **** *   Disables the Interrupt in the interrupt controller.
 388:Generated_Source\PSoC5/MODE_ISR.c **** *
 389:Generated_Source\PSoC5/MODE_ISR.c **** * Parameters:
 390:Generated_Source\PSoC5/MODE_ISR.c **** *   None
 391:Generated_Source\PSoC5/MODE_ISR.c **** *
 392:Generated_Source\PSoC5/MODE_ISR.c **** * Return:
 393:Generated_Source\PSoC5/MODE_ISR.c **** *   None
 394:Generated_Source\PSoC5/MODE_ISR.c **** *
 395:Generated_Source\PSoC5/MODE_ISR.c **** *******************************************************************************/
 396:Generated_Source\PSoC5/MODE_ISR.c **** void MODE_ISR_Disable(void)
 397:Generated_Source\PSoC5/MODE_ISR.c **** {
 321              		.loc 1 397 0
 322              		.cfi_startproc
 323              		@ args = 0, pretend = 0, frame = 0
 324              		@ frame_needed = 0, uses_anonymous_args = 0
 325              		@ link register save eliminated.
 398:Generated_Source\PSoC5/MODE_ISR.c ****     /* Disable the general interrupt. */
 399:Generated_Source\PSoC5/MODE_ISR.c ****     *MODE_ISR_INTC_CLR_EN = MODE_ISR__INTC_MASK;
 326              		.loc 1 399 0
 327 0000 0122     		movs	r2, #1
 328 0002 014B     		ldr	r3, .L30
 329 0004 1A60     		str	r2, [r3]
 330 0006 7047     		bx	lr
 331              	.L31:
 332              		.align	2
 333              	.L30:
 334 0008 80E100E0 		.word	-536813184
 335              		.cfi_endproc
 336              	.LFE10:
 337              		.size	MODE_ISR_Disable, .-MODE_ISR_Disable
 338              		.section	.text.MODE_ISR_Start,"ax",%progbits
 339              		.align	2
 340              		.global	MODE_ISR_Start
 341              		.thumb
 342              		.thumb_func
ARM GAS  C:\Users\dmarsch\AppData\Local\Temp\ccUnypUV.s 			page 14


 343              		.type	MODE_ISR_Start, %function
 344              	MODE_ISR_Start:
 345              	.LFB0:
  79:Generated_Source\PSoC5/MODE_ISR.c ****     /* For all we know the interrupt is active. */
 346              		.loc 1 79 0
 347              		.cfi_startproc
 348              		@ args = 0, pretend = 0, frame = 0
 349              		@ frame_needed = 0, uses_anonymous_args = 0
 350 0000 08B5     		push	{r3, lr}
 351              		.cfi_def_cfa_offset 8
 352              		.cfi_offset 3, -8
 353              		.cfi_offset 14, -4
  81:Generated_Source\PSoC5/MODE_ISR.c **** 
 354              		.loc 1 81 0
 355 0002 FFF7FEFF 		bl	MODE_ISR_Disable
 356              	.LVL19:
  84:Generated_Source\PSoC5/MODE_ISR.c **** 
 357              		.loc 1 84 0
 358 0006 0448     		ldr	r0, .L34
 359 0008 FFF7FEFF 		bl	MODE_ISR_SetVector
 360              	.LVL20:
  87:Generated_Source\PSoC5/MODE_ISR.c **** 
 361              		.loc 1 87 0
 362 000c 0320     		movs	r0, #3
 363 000e FFF7FEFF 		bl	MODE_ISR_SetPriority
 364              	.LVL21:
  90:Generated_Source\PSoC5/MODE_ISR.c **** }
 365              		.loc 1 90 0
 366 0012 FFF7FEFF 		bl	MODE_ISR_Enable
 367              	.LVL22:
 368 0016 08BD     		pop	{r3, pc}
 369              	.L35:
 370              		.align	2
 371              	.L34:
 372 0018 00000000 		.word	MODE_ISR_Interrupt
 373              		.cfi_endproc
 374              	.LFE0:
 375              		.size	MODE_ISR_Start, .-MODE_ISR_Start
 376              		.section	.text.MODE_ISR_StartEx,"ax",%progbits
 377              		.align	2
 378              		.global	MODE_ISR_StartEx
 379              		.thumb
 380              		.thumb_func
 381              		.type	MODE_ISR_StartEx, %function
 382              	MODE_ISR_StartEx:
 383              	.LFB1:
 122:Generated_Source\PSoC5/MODE_ISR.c ****     /* For all we know the interrupt is active. */
 384              		.loc 1 122 0
 385              		.cfi_startproc
 386              		@ args = 0, pretend = 0, frame = 0
 387              		@ frame_needed = 0, uses_anonymous_args = 0
 388              	.LVL23:
 389 0000 10B5     		push	{r4, lr}
 390              		.cfi_def_cfa_offset 8
 391              		.cfi_offset 4, -8
 392              		.cfi_offset 14, -4
 393 0002 0446     		mov	r4, r0
ARM GAS  C:\Users\dmarsch\AppData\Local\Temp\ccUnypUV.s 			page 15


 124:Generated_Source\PSoC5/MODE_ISR.c **** 
 394              		.loc 1 124 0
 395 0004 FFF7FEFF 		bl	MODE_ISR_Disable
 396              	.LVL24:
 127:Generated_Source\PSoC5/MODE_ISR.c **** 
 397              		.loc 1 127 0
 398 0008 2046     		mov	r0, r4
 399 000a FFF7FEFF 		bl	MODE_ISR_SetVector
 400              	.LVL25:
 130:Generated_Source\PSoC5/MODE_ISR.c **** 
 401              		.loc 1 130 0
 402 000e 0320     		movs	r0, #3
 403 0010 FFF7FEFF 		bl	MODE_ISR_SetPriority
 404              	.LVL26:
 133:Generated_Source\PSoC5/MODE_ISR.c **** }
 405              		.loc 1 133 0
 406 0014 FFF7FEFF 		bl	MODE_ISR_Enable
 407              	.LVL27:
 408 0018 10BD     		pop	{r4, pc}
 409              		.cfi_endproc
 410              	.LFE1:
 411              		.size	MODE_ISR_StartEx, .-MODE_ISR_StartEx
 412 001a 00BF     		.section	.text.MODE_ISR_Stop,"ax",%progbits
 413              		.align	2
 414              		.global	MODE_ISR_Stop
 415              		.thumb
 416              		.thumb_func
 417              		.type	MODE_ISR_Stop, %function
 418              	MODE_ISR_Stop:
 419              	.LFB2:
 152:Generated_Source\PSoC5/MODE_ISR.c ****     /* Disable this interrupt. */
 420              		.loc 1 152 0
 421              		.cfi_startproc
 422              		@ args = 0, pretend = 0, frame = 0
 423              		@ frame_needed = 0, uses_anonymous_args = 0
 424 0000 08B5     		push	{r3, lr}
 425              		.cfi_def_cfa_offset 8
 426              		.cfi_offset 3, -8
 427              		.cfi_offset 14, -4
 154:Generated_Source\PSoC5/MODE_ISR.c **** 
 428              		.loc 1 154 0
 429 0002 FFF7FEFF 		bl	MODE_ISR_Disable
 430              	.LVL28:
 157:Generated_Source\PSoC5/MODE_ISR.c **** }
 431              		.loc 1 157 0
 432 0006 0248     		ldr	r0, .L40
 433 0008 FFF7FEFF 		bl	MODE_ISR_SetVector
 434              	.LVL29:
 435 000c 08BD     		pop	{r3, pc}
 436              	.L41:
 437 000e 00BF     		.align	2
 438              	.L40:
 439 0010 00000000 		.word	IntDefaultHandler
 440              		.cfi_endproc
 441              	.LFE2:
 442              		.size	MODE_ISR_Stop, .-MODE_ISR_Stop
 443              		.section	.text.MODE_ISR_SetPending,"ax",%progbits
ARM GAS  C:\Users\dmarsch\AppData\Local\Temp\ccUnypUV.s 			page 16


 444              		.align	2
 445              		.global	MODE_ISR_SetPending
 446              		.thumb
 447              		.thumb_func
 448              		.type	MODE_ISR_SetPending, %function
 449              	MODE_ISR_SetPending:
 450              	.LFB11:
 400:Generated_Source\PSoC5/MODE_ISR.c **** }
 401:Generated_Source\PSoC5/MODE_ISR.c **** 
 402:Generated_Source\PSoC5/MODE_ISR.c **** 
 403:Generated_Source\PSoC5/MODE_ISR.c **** /*******************************************************************************
 404:Generated_Source\PSoC5/MODE_ISR.c **** * Function Name: MODE_ISR_SetPending
 405:Generated_Source\PSoC5/MODE_ISR.c **** ********************************************************************************
 406:Generated_Source\PSoC5/MODE_ISR.c **** *
 407:Generated_Source\PSoC5/MODE_ISR.c **** * Summary:
 408:Generated_Source\PSoC5/MODE_ISR.c **** *   Causes the Interrupt to enter the pending state, a software method of
 409:Generated_Source\PSoC5/MODE_ISR.c **** *   generating the interrupt.
 410:Generated_Source\PSoC5/MODE_ISR.c **** *
 411:Generated_Source\PSoC5/MODE_ISR.c **** * Parameters:
 412:Generated_Source\PSoC5/MODE_ISR.c **** *   None
 413:Generated_Source\PSoC5/MODE_ISR.c **** *
 414:Generated_Source\PSoC5/MODE_ISR.c **** * Return:
 415:Generated_Source\PSoC5/MODE_ISR.c **** *   None
 416:Generated_Source\PSoC5/MODE_ISR.c **** *
 417:Generated_Source\PSoC5/MODE_ISR.c **** * Side Effects:
 418:Generated_Source\PSoC5/MODE_ISR.c **** *   If interrupts are enabled and the interrupt is set up properly, the ISR is
 419:Generated_Source\PSoC5/MODE_ISR.c **** *   entered (depending on the priority of this interrupt and other pending 
 420:Generated_Source\PSoC5/MODE_ISR.c **** *   interrupts).
 421:Generated_Source\PSoC5/MODE_ISR.c **** *
 422:Generated_Source\PSoC5/MODE_ISR.c **** *******************************************************************************/
 423:Generated_Source\PSoC5/MODE_ISR.c **** void MODE_ISR_SetPending(void)
 424:Generated_Source\PSoC5/MODE_ISR.c **** {
 451              		.loc 1 424 0
 452              		.cfi_startproc
 453              		@ args = 0, pretend = 0, frame = 0
 454              		@ frame_needed = 0, uses_anonymous_args = 0
 455              		@ link register save eliminated.
 425:Generated_Source\PSoC5/MODE_ISR.c ****     *MODE_ISR_INTC_SET_PD = MODE_ISR__INTC_MASK;
 456              		.loc 1 425 0
 457 0000 0122     		movs	r2, #1
 458 0002 014B     		ldr	r3, .L43
 459 0004 1A60     		str	r2, [r3]
 460 0006 7047     		bx	lr
 461              	.L44:
 462              		.align	2
 463              	.L43:
 464 0008 00E200E0 		.word	-536813056
 465              		.cfi_endproc
 466              	.LFE11:
 467              		.size	MODE_ISR_SetPending, .-MODE_ISR_SetPending
 468              		.section	.text.MODE_ISR_ClearPending,"ax",%progbits
 469              		.align	2
 470              		.global	MODE_ISR_ClearPending
 471              		.thumb
 472              		.thumb_func
 473              		.type	MODE_ISR_ClearPending, %function
 474              	MODE_ISR_ClearPending:
ARM GAS  C:\Users\dmarsch\AppData\Local\Temp\ccUnypUV.s 			page 17


 475              	.LFB12:
 426:Generated_Source\PSoC5/MODE_ISR.c **** }
 427:Generated_Source\PSoC5/MODE_ISR.c **** 
 428:Generated_Source\PSoC5/MODE_ISR.c **** 
 429:Generated_Source\PSoC5/MODE_ISR.c **** /*******************************************************************************
 430:Generated_Source\PSoC5/MODE_ISR.c **** * Function Name: MODE_ISR_ClearPending
 431:Generated_Source\PSoC5/MODE_ISR.c **** ********************************************************************************
 432:Generated_Source\PSoC5/MODE_ISR.c **** *
 433:Generated_Source\PSoC5/MODE_ISR.c **** * Summary:
 434:Generated_Source\PSoC5/MODE_ISR.c **** *   Clears a pending interrupt in the interrupt controller.
 435:Generated_Source\PSoC5/MODE_ISR.c **** *
 436:Generated_Source\PSoC5/MODE_ISR.c **** *   Note Some interrupt sources are clear-on-read and require the block 
 437:Generated_Source\PSoC5/MODE_ISR.c **** *   interrupt/status register to be read/cleared with the appropriate block API 
 438:Generated_Source\PSoC5/MODE_ISR.c **** *   (GPIO, UART, and so on). Otherwise the ISR will continue to remain in 
 439:Generated_Source\PSoC5/MODE_ISR.c **** *   pending state even though the interrupt itself is cleared using this API.
 440:Generated_Source\PSoC5/MODE_ISR.c **** *
 441:Generated_Source\PSoC5/MODE_ISR.c **** * Parameters:
 442:Generated_Source\PSoC5/MODE_ISR.c **** *   None
 443:Generated_Source\PSoC5/MODE_ISR.c **** *
 444:Generated_Source\PSoC5/MODE_ISR.c **** * Return:
 445:Generated_Source\PSoC5/MODE_ISR.c **** *   None
 446:Generated_Source\PSoC5/MODE_ISR.c **** *
 447:Generated_Source\PSoC5/MODE_ISR.c **** *******************************************************************************/
 448:Generated_Source\PSoC5/MODE_ISR.c **** void MODE_ISR_ClearPending(void)
 449:Generated_Source\PSoC5/MODE_ISR.c **** {
 476              		.loc 1 449 0
 477              		.cfi_startproc
 478              		@ args = 0, pretend = 0, frame = 0
 479              		@ frame_needed = 0, uses_anonymous_args = 0
 480              		@ link register save eliminated.
 450:Generated_Source\PSoC5/MODE_ISR.c ****     *MODE_ISR_INTC_CLR_PD = MODE_ISR__INTC_MASK;
 481              		.loc 1 450 0
 482 0000 0122     		movs	r2, #1
 483 0002 014B     		ldr	r3, .L46
 484 0004 1A60     		str	r2, [r3]
 485 0006 7047     		bx	lr
 486              	.L47:
 487              		.align	2
 488              	.L46:
 489 0008 80E200E0 		.word	-536812928
 490              		.cfi_endproc
 491              	.LFE12:
 492              		.size	MODE_ISR_ClearPending, .-MODE_ISR_ClearPending
 493              		.comm	POL,1,1
 494              		.comm	setting,1,1
 495              		.text
 496              	.Letext0:
 497              		.file 2 "Generated_Source\\PSoC5/cytypes.h"
 498              		.file 3 "Generated_Source\\PSoC5\\TOUT_ISR.h"
 499              		.file 4 "Generated_Source\\PSoC5\\MOTOR.h"
 500              		.file 5 "Generated_Source\\PSoC5\\MOTOR_ISR.h"
